{
  "_format": "hh-sol-artifact-1",
  "contractName": "LenderBorrower",
  "sourceName": "contracts/LenderBorrower.sol",
  "abi": [
    {
      "inputs": [],
      "stateMutability": "nonpayable",
      "type": "constructor"
    },
    {
      "anonymous": false,
      "inputs": [
        {
          "indexed": true,
          "internalType": "address",
          "name": "previousOwner",
          "type": "address"
        },
        {
          "indexed": true,
          "internalType": "address",
          "name": "newOwner",
          "type": "address"
        }
      ],
      "name": "OwnershipTransferred",
      "type": "event"
    },
    {
      "inputs": [],
      "name": "_proposalId",
      "outputs": [
        {
          "internalType": "uint256",
          "name": "_value",
          "type": "uint256"
        }
      ],
      "stateMutability": "view",
      "type": "function"
    },
    {
      "inputs": [
        {
          "internalType": "uint256",
          "name": "",
          "type": "uint256"
        }
      ],
      "name": "borrowRequests",
      "outputs": [
        {
          "internalType": "address",
          "name": "borrower",
          "type": "address"
        },
        {
          "internalType": "uint256",
          "name": "amount",
          "type": "uint256"
        },
        {
          "internalType": "uint256",
          "name": "interestRate",
          "type": "uint256"
        },
        {
          "internalType": "uint256",
          "name": "repayMentPeriod",
          "type": "uint256"
        },
        {
          "internalType": "uint256",
          "name": "propasalId",
          "type": "uint256"
        },
        {
          "internalType": "enum LenderBorrower.Status",
          "name": "currentStatus",
          "type": "uint8"
        },
        {
          "internalType": "address",
          "name": "lender",
          "type": "address"
        },
        {
          "internalType": "uint256",
          "name": "timeTaken",
          "type": "uint256"
        },
        {
          "internalType": "address",
          "name": "nft",
          "type": "address"
        },
        {
          "internalType": "uint256",
          "name": "tokenId",
          "type": "uint256"
        }
      ],
      "stateMutability": "view",
      "type": "function"
    },
    {
      "inputs": [
        {
          "internalType": "uint256",
          "name": "_requiredProposalId",
          "type": "uint256"
        }
      ],
      "name": "calculateAmountDue",
      "outputs": [
        {
          "internalType": "uint256",
          "name": "_amountDue",
          "type": "uint256"
        }
      ],
      "stateMutability": "view",
      "type": "function"
    },
    {
      "inputs": [
        {
          "internalType": "uint256",
          "name": "_requiredProposalId",
          "type": "uint256"
        }
      ],
      "name": "claimNft",
      "outputs": [],
      "stateMutability": "nonpayable",
      "type": "function"
    },
    {
      "inputs": [
        {
          "internalType": "uint256",
          "name": "_requiredProposalId",
          "type": "uint256"
        }
      ],
      "name": "lendToProposal",
      "outputs": [],
      "stateMutability": "payable",
      "type": "function"
    },
    {
      "inputs": [
        {
          "internalType": "address",
          "name": "",
          "type": "address"
        },
        {
          "internalType": "address",
          "name": "",
          "type": "address"
        },
        {
          "internalType": "uint256",
          "name": "",
          "type": "uint256"
        },
        {
          "internalType": "bytes",
          "name": "",
          "type": "bytes"
        }
      ],
      "name": "onERC721Received",
      "outputs": [
        {
          "internalType": "bytes4",
          "name": "",
          "type": "bytes4"
        }
      ],
      "stateMutability": "nonpayable",
      "type": "function"
    },
    {
      "inputs": [],
      "name": "owner",
      "outputs": [
        {
          "internalType": "address",
          "name": "",
          "type": "address"
        }
      ],
      "stateMutability": "view",
      "type": "function"
    },
    {
      "inputs": [],
      "name": "renounceOwnership",
      "outputs": [],
      "stateMutability": "nonpayable",
      "type": "function"
    },
    {
      "inputs": [
        {
          "internalType": "uint256",
          "name": "_requiredProposalId",
          "type": "uint256"
        }
      ],
      "name": "repayAll",
      "outputs": [],
      "stateMutability": "payable",
      "type": "function"
    },
    {
      "inputs": [
        {
          "internalType": "address",
          "name": "",
          "type": "address"
        },
        {
          "internalType": "uint256",
          "name": "",
          "type": "uint256"
        }
      ],
      "name": "requestListByAddress",
      "outputs": [
        {
          "internalType": "uint256",
          "name": "",
          "type": "uint256"
        }
      ],
      "stateMutability": "view",
      "type": "function"
    },
    {
      "inputs": [],
      "name": "returnCurrentProposalId",
      "outputs": [
        {
          "internalType": "uint256",
          "name": "currentProposal",
          "type": "uint256"
        }
      ],
      "stateMutability": "view",
      "type": "function"
    },
    {
      "inputs": [
        {
          "internalType": "uint256",
          "name": "amount",
          "type": "uint256"
        },
        {
          "internalType": "uint256",
          "name": "interestRate",
          "type": "uint256"
        },
        {
          "internalType": "uint256",
          "name": "repayMentPeriod",
          "type": "uint256"
        },
        {
          "internalType": "address",
          "name": "nft",
          "type": "address"
        },
        {
          "internalType": "uint256",
          "name": "tokenId",
          "type": "uint256"
        }
      ],
      "name": "startBorrowProposal",
      "outputs": [
        {
          "internalType": "uint256",
          "name": "proposalId",
          "type": "uint256"
        }
      ],
      "stateMutability": "nonpayable",
      "type": "function"
    },
    {
      "inputs": [
        {
          "internalType": "address",
          "name": "newOwner",
          "type": "address"
        }
      ],
      "name": "transferOwnership",
      "outputs": [],
      "stateMutability": "nonpayable",
      "type": "function"
    },
    {
      "inputs": [
        {
          "internalType": "uint256",
          "name": "_requiredProposalId",
          "type": "uint256"
        }
      ],
      "name": "withDrawProposal",
      "outputs": [],
      "stateMutability": "nonpayable",
      "type": "function"
    }
  ],
  "bytecode": "0x608060405234801561001057600080fd5b5061002d61002261003260201b60201c565b61003a60201b60201c565b6100fe565b600033905090565b60008060009054906101000a900473ffffffffffffffffffffffffffffffffffffffff169050816000806101000a81548173ffffffffffffffffffffffffffffffffffffffff021916908373ffffffffffffffffffffffffffffffffffffffff1602179055508173ffffffffffffffffffffffffffffffffffffffff168173ffffffffffffffffffffffffffffffffffffffff167f8be0079c531659141344cd1fd0a4f28419497f9722a3daafe3b4186f6b6457e060405160405180910390a35050565b6120f9806200010e6000396000f3fe6080604052600436106100dd5760003560e01c80638da5cb5b1161007f578063d974cc5711610059578063d974cc57146102ad578063de074896146102ea578063e54ba97614610315578063f2fde38b1461033e576100dd565b80638da5cb5b146102295780639cf7095b14610254578063b1c92b1814610291576100dd565b80632ec09d39116100bb5780632ec09d39146101875780633221be54146101b057806350d282fc146101cc578063715018a614610212576100dd565b806307000252146100e2578063150b7a021461011f5780632453abda1461015c575b600080fd5b3480156100ee57600080fd5b5061010960048036038101906101049190611497565b610367565b60405161011691906114e6565b60405180910390f35b34801561012b57600080fd5b5061014660048036038101906101419190611647565b610398565b6040516101539190611705565b60405180910390f35b34801561016857600080fd5b506101716103ac565b60405161017e91906114e6565b60405180910390f35b34801561019357600080fd5b506101ae60048036038101906101a99190611720565b6103b8565b005b6101ca60048036038101906101c59190611720565b6105df565b005b3480156101d857600080fd5b506101f360048036038101906101ee9190611720565b6107b4565b6040516102099a999897969594939291906117d3565b60405180910390f35b34801561021e57600080fd5b50610227610875565b005b34801561023557600080fd5b5061023e610889565b60405161024b919061186f565b60405180910390f35b34801561026057600080fd5b5061027b6004803603810190610276919061188a565b6108b2565b60405161028891906114e6565b60405180910390f35b6102ab60048036038101906102a69190611720565b610ca5565b005b3480156102b957600080fd5b506102d460048036038101906102cf9190611720565b610ee7565b6040516102e191906114e6565b60405180910390f35b3480156102f657600080fd5b506102ff610f8c565b60405161030c91906114e6565b60405180910390f35b34801561032157600080fd5b5061033c60048036038101906103379190611720565b610f9d565b005b34801561034a57600080fd5b5061036560048036038101906103609190611905565b6111fe565b005b6003602052816000526040600020818154811061038357600080fd5b90600052602060002001600091509150505481565b600063150b7a0260e01b9050949350505050565b60018060000154905081565b6002600082815260200190815260200160002060050160019054906101000a900473ffffffffffffffffffffffffffffffffffffffff1673ffffffffffffffffffffffffffffffffffffffff163373ffffffffffffffffffffffffffffffffffffffff161461045c576040517f08c379a0000000000000000000000000000000000000000000000000000000008152600401610453906119b5565b60405180910390fd5b6201518060026000838152602001908152602001600020600301546104819190611a04565b6002600083815260200190815260200160002060060154426104a39190611a46565b116104e3576040517f08c379a00000000000000000000000000000000000000000000000000000000081526004016104da90611aec565b60405180910390fd5b6002600082815260200190815260200160002060070160009054906101000a900473ffffffffffffffffffffffffffffffffffffffff1673ffffffffffffffffffffffffffffffffffffffff166342842e0e303360026000868152602001908152602001600020600801546040518463ffffffff1660e01b815260040161056c93929190611b0c565b600060405180830381600087803b15801561058657600080fd5b505af115801561059a573d6000803e3d6000fd5b50505050600280600083815260200190815260200160002060050160006101000a81548160ff021916908360048111156105d7576105d661175c565b5b021790555050565b6105e881610ee7565b34101561062a576040517f08c379a000000000000000000000000000000000000000000000000000000000815260040161062190611bb5565b60405180910390fd5b6002600082815260200190815260200160002060000160009054906101000a900473ffffffffffffffffffffffffffffffffffffffff1673ffffffffffffffffffffffffffffffffffffffff163373ffffffffffffffffffffffffffffffffffffffff16146106ce576040517f08c379a00000000000000000000000000000000000000000000000000000000081526004016106c590611c21565b60405180910390fd5b60006002600083815260200190815260200160002060050160019054906101000a900473ffffffffffffffffffffffffffffffffffffffff1673ffffffffffffffffffffffffffffffffffffffff163460405161072a90611c72565b60006040518083038185875af1925050503d8060008114610767576040519150601f19603f3d011682016040523d82523d6000602084013e61076c565b606091505b50509050806107b0576040517f08c379a00000000000000000000000000000000000000000000000000000000081526004016107a790611cd3565b60405180910390fd5b5050565b60026020528060005260406000206000915090508060000160009054906101000a900473ffffffffffffffffffffffffffffffffffffffff16908060010154908060020154908060030154908060040154908060050160009054906101000a900460ff16908060050160019054906101000a900473ffffffffffffffffffffffffffffffffffffffff16908060060154908060070160009054906101000a900473ffffffffffffffffffffffffffffffffffffffff1690806008015490508a565b61087d611281565b61088760006112ff565b565b60008060009054906101000a900473ffffffffffffffffffffffffffffffffffffffff16905090565b6000808390503373ffffffffffffffffffffffffffffffffffffffff168173ffffffffffffffffffffffffffffffffffffffff16636352211e856040518263ffffffff1660e01b815260040161090891906114e6565b602060405180830381865afa158015610925573d6000803e3d6000fd5b505050506040513d601f19601f820116820180604052508101906109499190611d08565b73ffffffffffffffffffffffffffffffffffffffff161461099f576040517f08c379a000000000000000000000000000000000000000000000000000000000815260040161099690611d81565b60405180910390fd5b6109a960016113c3565b6040518061014001604052803373ffffffffffffffffffffffffffffffffffffffff1681526020018881526020018781526020018681526020016109ed60016113d9565b815260200160006004811115610a0657610a0561175c565b5b8152602001600073ffffffffffffffffffffffffffffffffffffffff168152602001600081526020018573ffffffffffffffffffffffffffffffffffffffff1681526020018481525060026000610a5d60016113d9565b815260200190815260200160002060008201518160000160006101000a81548173ffffffffffffffffffffffffffffffffffffffff021916908373ffffffffffffffffffffffffffffffffffffffff1602179055506020820151816001015560408201518160020155606082015181600301556080820151816004015560a08201518160050160006101000a81548160ff02191690836004811115610b0557610b0461175c565b5b021790555060c08201518160050160016101000a81548173ffffffffffffffffffffffffffffffffffffffff021916908373ffffffffffffffffffffffffffffffffffffffff16021790555060e082015181600601556101008201518160070160006101000a81548173ffffffffffffffffffffffffffffffffffffffff021916908373ffffffffffffffffffffffffffffffffffffffff16021790555061012082015181600801559050508073ffffffffffffffffffffffffffffffffffffffff166342842e0e3330866040518463ffffffff1660e01b8152600401610bee93929190611b0c565b600060405180830381600087803b158015610c0857600080fd5b505af1158015610c1c573d6000803e3d6000fd5b50505050600360003373ffffffffffffffffffffffffffffffffffffffff1673ffffffffffffffffffffffffffffffffffffffff168152602001908152602001600020610c6960016113d9565b9080600181540180825580915050600190039060005260206000200160009091909190915055610c9960016113d9565b91505095945050505050565b6002600082815260200190815260200160002060010154341015610cfe576040517f08c379a0000000000000000000000000000000000000000000000000000000008152600401610cf590611ded565b60405180910390fd5b60006004811115610d1257610d1161175c565b5b6002600083815260200190815260200160002060050160009054906101000a900460ff166004811115610d4857610d4761175c565b5b14610d5257600080fd5b426002600083815260200190815260200160002060060181905550336002600083815260200190815260200160002060050160016101000a81548173ffffffffffffffffffffffffffffffffffffffff021916908373ffffffffffffffffffffffffffffffffffffffff16021790555060036002600083815260200190815260200160002060050160006101000a81548160ff02191690836004811115610dfc57610dfb61175c565b5b021790555060006002600083815260200190815260200160002060000160009054906101000a900473ffffffffffffffffffffffffffffffffffffffff1673ffffffffffffffffffffffffffffffffffffffff1634604051610e5d90611c72565b60006040518083038185875af1925050503d8060008114610e9a576040519150601f19603f3d011682016040523d82523d6000602084013e610e9f565b606091505b5050905080610ee3576040517f08c379a0000000000000000000000000000000000000000000000000000000008152600401610eda90611cd3565b60405180910390fd5b5050565b6000806002600084815260200190815260200160002060010154905060006002600085815260200190815260200160002060020154905060006301e13380600260008781526020019081526020016000206006015442610f479190611a46565b610f519190611e3c565b836064846001610f619190611e6d565b610f6b9190611e3c565b610f759190611a04565b610f7f9190611a04565b9050809350505050919050565b6000610f9860016113d9565b905090565b6002600082815260200190815260200160002060000160009054906101000a900473ffffffffffffffffffffffffffffffffffffffff1673ffffffffffffffffffffffffffffffffffffffff163373ffffffffffffffffffffffffffffffffffffffff1614611041576040517f08c379a000000000000000000000000000000000000000000000000000000000815260040161103890611f13565b60405180910390fd5b600060048111156110555761105461175c565b5b6002600083815260200190815260200160002060050160009054906101000a900460ff16600481111561108b5761108a61175c565b5b146110cb576040517f08c379a00000000000000000000000000000000000000000000000000000000081526004016110c290611fa5565b60405180910390fd5b60046002600083815260200190815260200160002060050160006101000a81548160ff021916908360048111156111055761110461175c565b5b02179055506002600082815260200190815260200160002060070160009054906101000a900473ffffffffffffffffffffffffffffffffffffffff1673ffffffffffffffffffffffffffffffffffffffff166342842e0e306002600085815260200190815260200160002060050160019054906101000a900473ffffffffffffffffffffffffffffffffffffffff1660026000868152602001908152602001600020600801546040518463ffffffff1660e01b81526004016111c993929190611b0c565b600060405180830381600087803b1580156111e357600080fd5b505af11580156111f7573d6000803e3d6000fd5b5050505050565b611206611281565b600073ffffffffffffffffffffffffffffffffffffffff168173ffffffffffffffffffffffffffffffffffffffff1603611275576040517f08c379a000000000000000000000000000000000000000000000000000000000815260040161126c90612037565b60405180910390fd5b61127e816112ff565b50565b6112896113e7565b73ffffffffffffffffffffffffffffffffffffffff166112a7610889565b73ffffffffffffffffffffffffffffffffffffffff16146112fd576040517f08c379a00000000000000000000000000000000000000000000000000000000081526004016112f4906120a3565b60405180910390fd5b565b60008060009054906101000a900473ffffffffffffffffffffffffffffffffffffffff169050816000806101000a81548173ffffffffffffffffffffffffffffffffffffffff021916908373ffffffffffffffffffffffffffffffffffffffff1602179055508173ffffffffffffffffffffffffffffffffffffffff168173ffffffffffffffffffffffffffffffffffffffff167f8be0079c531659141344cd1fd0a4f28419497f9722a3daafe3b4186f6b6457e060405160405180910390a35050565b6001816000016000828254019250508190555050565b600081600001549050919050565b600033905090565b6000604051905090565b600080fd5b600080fd5b600073ffffffffffffffffffffffffffffffffffffffff82169050919050565b600061142e82611403565b9050919050565b61143e81611423565b811461144957600080fd5b50565b60008135905061145b81611435565b92915050565b6000819050919050565b61147481611461565b811461147f57600080fd5b50565b6000813590506114918161146b565b92915050565b600080604083850312156114ae576114ad6113f9565b5b60006114bc8582860161144c565b92505060206114cd85828601611482565b9150509250929050565b6114e081611461565b82525050565b60006020820190506114fb60008301846114d7565b92915050565b600080fd5b600080fd5b6000601f19601f8301169050919050565b7f4e487b7100000000000000000000000000000000000000000000000000000000600052604160045260246000fd5b6115548261150b565b810181811067ffffffffffffffff821117156115735761157261151c565b5b80604052505050565b60006115866113ef565b9050611592828261154b565b919050565b600067ffffffffffffffff8211156115b2576115b161151c565b5b6115bb8261150b565b9050602081019050919050565b82818337600083830152505050565b60006115ea6115e584611597565b61157c565b90508281526020810184848401111561160657611605611506565b5b6116118482856115c8565b509392505050565b600082601f83011261162e5761162d611501565b5b813561163e8482602086016115d7565b91505092915050565b60008060008060808587031215611661576116606113f9565b5b600061166f8782880161144c565b94505060206116808782880161144c565b935050604061169187828801611482565b925050606085013567ffffffffffffffff8111156116b2576116b16113fe565b5b6116be87828801611619565b91505092959194509250565b60007fffffffff0000000000000000000000000000000000000000000000000000000082169050919050565b6116ff816116ca565b82525050565b600060208201905061171a60008301846116f6565b92915050565b600060208284031215611736576117356113f9565b5b600061174484828501611482565b91505092915050565b61175681611423565b82525050565b7f4e487b7100000000000000000000000000000000000000000000000000000000600052602160045260246000fd5b6005811061179c5761179b61175c565b5b50565b60008190506117ad8261178b565b919050565b60006117bd8261179f565b9050919050565b6117cd816117b2565b82525050565b6000610140820190506117e9600083018d61174d565b6117f6602083018c6114d7565b611803604083018b6114d7565b611810606083018a6114d7565b61181d60808301896114d7565b61182a60a08301886117c4565b61183760c083018761174d565b61184460e08301866114d7565b61185261010083018561174d565b6118606101208301846114d7565b9b9a5050505050505050505050565b6000602082019050611884600083018461174d565b92915050565b600080600080600060a086880312156118a6576118a56113f9565b5b60006118b488828901611482565b95505060206118c588828901611482565b94505060406118d688828901611482565b93505060606118e78882890161144c565b92505060806118f888828901611482565b9150509295509295909350565b60006020828403121561191b5761191a6113f9565b5b60006119298482850161144c565b91505092915050565b600082825260208201905092915050565b7f4f6e6c792074686520706572736f6e2077686f206c656e7420746865206d6f6e60008201527f65792063616e20636c61696d2074686973000000000000000000000000000000602082015250565b600061199f603183611932565b91506119aa82611943565b604082019050919050565b600060208201905081810360008301526119ce81611992565b9050919050565b7f4e487b7100000000000000000000000000000000000000000000000000000000600052601160045260246000fd5b6000611a0f82611461565b9150611a1a83611461565b9250828202611a2881611461565b91508282048414831517611a3f57611a3e6119d5565b5b5092915050565b6000611a5182611461565b9150611a5c83611461565b9250828203905081811115611a7457611a736119d5565b5b92915050565b7f5468652072657175697265642074696d6520686173206e6f7420656c6170736560008201527f6400000000000000000000000000000000000000000000000000000000000000602082015250565b6000611ad6602183611932565b9150611ae182611a7a565b604082019050919050565b60006020820190508181036000830152611b0581611ac9565b9050919050565b6000606082019050611b21600083018661174d565b611b2e602083018561174d565b611b3b60408301846114d7565b949350505050565b7f596f75206e65656420746f207265706179207468652066756c6c20616d6f756e60008201527f7400000000000000000000000000000000000000000000000000000000000000602082015250565b6000611b9f602183611932565b9150611baa82611b43565b604082019050919050565b60006020820190508181036000830152611bce81611b92565b9050919050565b7f4f6e6c792074686520626f72726f7765722063616e2072657061792074686973600082015250565b6000611c0b602083611932565b9150611c1682611bd5565b602082019050919050565b60006020820190508181036000830152611c3a81611bfe565b9050919050565b600081905092915050565b50565b6000611c5c600083611c41565b9150611c6782611c4c565b600082019050919050565b6000611c7d82611c4f565b9150819050919050565b7f4661696c656420746f2073656e64204574686572000000000000000000000000600082015250565b6000611cbd601483611932565b9150611cc882611c87565b602082019050919050565b60006020820190508181036000830152611cec81611cb0565b9050919050565b600081519050611d0281611435565b92915050565b600060208284031215611d1e57611d1d6113f9565b5b6000611d2c84828501611cf3565b91505092915050565b7f53656e646572206973206e6f7420746865206f776e6572000000000000000000600082015250565b6000611d6b601783611932565b9150611d7682611d35565b602082019050919050565b60006020820190508181036000830152611d9a81611d5e565b9050919050565b7f4e6f7420656e6f75676820616d6f756e74206c656e7400000000000000000000600082015250565b6000611dd7601683611932565b9150611de282611da1565b602082019050919050565b60006020820190508181036000830152611e0681611dca565b9050919050565b7f4e487b7100000000000000000000000000000000000000000000000000000000600052601260045260246000fd5b6000611e4782611461565b9150611e5283611461565b925082611e6257611e61611e0d565b5b828204905092915050565b6000611e7882611461565b9150611e8383611461565b9250828201905080821115611e9b57611e9a6119d5565b5b92915050565b7f4f6e6c792074686520706572736f6e2077686f206d616465207468652072657160008201527f756573742063616e207769746864726177206974000000000000000000000000602082015250565b6000611efd603483611932565b9150611f0882611ea1565b604082019050919050565b60006020820190508181036000830152611f2c81611ef0565b9050919050565b7f5468652063757272656e7420737461747573206f662050726f706f73616c206460008201527f6f65736e277420616c6c6f772074686973000000000000000000000000000000602082015250565b6000611f8f603183611932565b9150611f9a82611f33565b604082019050919050565b60006020820190508181036000830152611fbe81611f82565b9050919050565b7f4f776e61626c653a206e6577206f776e657220697320746865207a65726f206160008201527f6464726573730000000000000000000000000000000000000000000000000000602082015250565b6000612021602683611932565b915061202c82611fc5565b604082019050919050565b6000602082019050818103600083015261205081612014565b9050919050565b7f4f776e61626c653a2063616c6c6572206973206e6f7420746865206f776e6572600082015250565b600061208d602083611932565b915061209882612057565b602082019050919050565b600060208201905081810360008301526120bc81612080565b905091905056fea2646970667358221220f39a43741000221b55233ce71af9062113b789b7a9a5bb15c87c91c91fb0d07464736f6c63430008110033",
  "linkReferences": {},
  "deployedLinkReferences": {}
}