{
  "_format": "hh-sol-artifact-1",
  "contractName": "LenderBorrower",
  "sourceName": "contracts/LenderBorrower.sol",
  "abi": [
    {
      "inputs": [],
      "stateMutability": "nonpayable",
      "type": "constructor"
    },
    {
      "anonymous": false,
      "inputs": [
        {
          "indexed": true,
          "internalType": "address",
          "name": "previousOwner",
          "type": "address"
        },
        {
          "indexed": true,
          "internalType": "address",
          "name": "newOwner",
          "type": "address"
        }
      ],
      "name": "OwnershipTransferred",
      "type": "event"
    },
    {
      "inputs": [],
      "name": "_proposalId",
      "outputs": [
        {
          "internalType": "uint256",
          "name": "_value",
          "type": "uint256"
        }
      ],
      "stateMutability": "view",
      "type": "function"
    },
    {
      "inputs": [
        {
          "internalType": "uint256",
          "name": "",
          "type": "uint256"
        }
      ],
      "name": "borrowRequests",
      "outputs": [
        {
          "internalType": "address",
          "name": "borrower",
          "type": "address"
        },
        {
          "internalType": "uint256",
          "name": "amount",
          "type": "uint256"
        },
        {
          "internalType": "uint256",
          "name": "interestRate",
          "type": "uint256"
        },
        {
          "internalType": "uint256",
          "name": "repayMentPeriod",
          "type": "uint256"
        },
        {
          "internalType": "uint256",
          "name": "propasalId",
          "type": "uint256"
        },
        {
          "internalType": "enum LenderBorrower.Status",
          "name": "currentStatus",
          "type": "uint8"
        },
        {
          "internalType": "address",
          "name": "lender",
          "type": "address"
        },
        {
          "internalType": "uint256",
          "name": "timeTaken",
          "type": "uint256"
        },
        {
          "internalType": "address",
          "name": "nft",
          "type": "address"
        },
        {
          "internalType": "uint256",
          "name": "tokenId",
          "type": "uint256"
        }
      ],
      "stateMutability": "view",
      "type": "function"
    },
    {
      "inputs": [
        {
          "internalType": "uint256",
          "name": "_requiredProposalId",
          "type": "uint256"
        }
      ],
      "name": "claimNft",
      "outputs": [],
      "stateMutability": "nonpayable",
      "type": "function"
    },
    {
      "inputs": [],
      "name": "getTheProposals",
      "outputs": [
        {
          "components": [
            {
              "internalType": "address",
              "name": "borrower",
              "type": "address"
            },
            {
              "internalType": "uint256",
              "name": "amount",
              "type": "uint256"
            },
            {
              "internalType": "uint256",
              "name": "interestRate",
              "type": "uint256"
            },
            {
              "internalType": "uint256",
              "name": "repayMentPeriod",
              "type": "uint256"
            },
            {
              "internalType": "uint256",
              "name": "propasalId",
              "type": "uint256"
            },
            {
              "internalType": "enum LenderBorrower.Status",
              "name": "currentStatus",
              "type": "uint8"
            },
            {
              "internalType": "address",
              "name": "lender",
              "type": "address"
            },
            {
              "internalType": "uint256",
              "name": "timeTaken",
              "type": "uint256"
            },
            {
              "internalType": "address",
              "name": "nft",
              "type": "address"
            },
            {
              "internalType": "uint256",
              "name": "tokenId",
              "type": "uint256"
            }
          ],
          "internalType": "struct LenderBorrower.borrowRequest[]",
          "name": "allBorrowRequests",
          "type": "tuple[]"
        }
      ],
      "stateMutability": "view",
      "type": "function"
    },
    {
      "inputs": [
        {
          "internalType": "uint256",
          "name": "_requiredProposalId",
          "type": "uint256"
        }
      ],
      "name": "lendToProposal",
      "outputs": [],
      "stateMutability": "payable",
      "type": "function"
    },
    {
      "inputs": [
        {
          "internalType": "address",
          "name": "",
          "type": "address"
        },
        {
          "internalType": "address",
          "name": "",
          "type": "address"
        },
        {
          "internalType": "uint256",
          "name": "",
          "type": "uint256"
        },
        {
          "internalType": "bytes",
          "name": "",
          "type": "bytes"
        }
      ],
      "name": "onERC721Received",
      "outputs": [
        {
          "internalType": "bytes4",
          "name": "",
          "type": "bytes4"
        }
      ],
      "stateMutability": "nonpayable",
      "type": "function"
    },
    {
      "inputs": [],
      "name": "owner",
      "outputs": [
        {
          "internalType": "address",
          "name": "",
          "type": "address"
        }
      ],
      "stateMutability": "view",
      "type": "function"
    },
    {
      "inputs": [],
      "name": "renounceOwnership",
      "outputs": [],
      "stateMutability": "nonpayable",
      "type": "function"
    },
    {
      "inputs": [
        {
          "internalType": "uint256",
          "name": "_requiredProposalId",
          "type": "uint256"
        }
      ],
      "name": "repayAll",
      "outputs": [],
      "stateMutability": "payable",
      "type": "function"
    },
    {
      "inputs": [
        {
          "internalType": "address",
          "name": "",
          "type": "address"
        },
        {
          "internalType": "uint256",
          "name": "",
          "type": "uint256"
        }
      ],
      "name": "requestListByAddress",
      "outputs": [
        {
          "internalType": "uint256",
          "name": "",
          "type": "uint256"
        }
      ],
      "stateMutability": "view",
      "type": "function"
    },
    {
      "inputs": [],
      "name": "returnCurrentProposalId",
      "outputs": [
        {
          "internalType": "uint256",
          "name": "currentProposal",
          "type": "uint256"
        }
      ],
      "stateMutability": "view",
      "type": "function"
    },
    {
      "inputs": [
        {
          "internalType": "uint256",
          "name": "amount",
          "type": "uint256"
        },
        {
          "internalType": "uint256",
          "name": "interestRate",
          "type": "uint256"
        },
        {
          "internalType": "uint256",
          "name": "repayMentPeriod",
          "type": "uint256"
        },
        {
          "internalType": "address",
          "name": "nft",
          "type": "address"
        },
        {
          "internalType": "uint256",
          "name": "tokenId",
          "type": "uint256"
        }
      ],
      "name": "startBorrowProposal",
      "outputs": [
        {
          "internalType": "uint256",
          "name": "proposalId",
          "type": "uint256"
        }
      ],
      "stateMutability": "nonpayable",
      "type": "function"
    },
    {
      "inputs": [
        {
          "internalType": "address",
          "name": "newOwner",
          "type": "address"
        }
      ],
      "name": "transferOwnership",
      "outputs": [],
      "stateMutability": "nonpayable",
      "type": "function"
    },
    {
      "inputs": [
        {
          "internalType": "uint256",
          "name": "_requiredProposalId",
          "type": "uint256"
        }
      ],
      "name": "withDrawProposal",
      "outputs": [],
      "stateMutability": "nonpayable",
      "type": "function"
    }
  ],
  "bytecode": "0x608060405234801561001057600080fd5b5061002d61002261003260201b60201c565b61003a60201b60201c565b6100fe565b600033905090565b60008060009054906101000a900473ffffffffffffffffffffffffffffffffffffffff169050816000806101000a81548173ffffffffffffffffffffffffffffffffffffffff021916908373ffffffffffffffffffffffffffffffffffffffff1602179055508173ffffffffffffffffffffffffffffffffffffffff168173ffffffffffffffffffffffffffffffffffffffff167f8be0079c531659141344cd1fd0a4f28419497f9722a3daafe3b4186f6b6457e060405160405180910390a35050565b6120078061010d6000396000f3fe6080604052600436106100dd5760003560e01c8063715018a61161007f578063b1c92b1811610059578063b1c92b18146102bc578063de074896146102d8578063e54ba97614610303578063f2fde38b1461032c576100dd565b8063715018a61461023d5780638da5cb5b146102545780639cf7095b1461027f576100dd565b80632ec09d39116100bb5780632ec09d39146101875780633221be54146101b057806339c1bfd4146101cc57806350d282fc146101f7576100dd565b806307000252146100e2578063150b7a021461011f5780632453abda1461015c575b600080fd5b3480156100ee57600080fd5b50610109600480360381019061010491906113fd565b610355565b604051610116919061144c565b60405180910390f35b34801561012b57600080fd5b50610146600480360381019061014191906115ad565b610386565b604051610153919061166b565b60405180910390f35b34801561016857600080fd5b5061017161039a565b60405161017e919061144c565b60405180910390f35b34801561019357600080fd5b506101ae60048036038101906101a99190611686565b6103a6565b005b6101ca60048036038101906101c59190611686565b610546565b005b3480156101d857600080fd5b506101e161062c565b6040516101ee91906118c4565b60405180910390f35b34801561020357600080fd5b5061021e60048036038101906102199190611686565b6108b8565b6040516102349a99989796959493929190611904565b60405180910390f35b34801561024957600080fd5b50610252610979565b005b34801561026057600080fd5b5061026961098d565b60405161027691906119a0565b60405180910390f35b34801561028b57600080fd5b506102a660048036038101906102a191906119bb565b6109b6565b6040516102b3919061144c565b60405180910390f35b6102d660048036038101906102d19190611686565b610da9565b005b3480156102e457600080fd5b506102ed610ef2565b6040516102fa919061144c565b60405180910390f35b34801561030f57600080fd5b5061032a60048036038101906103259190611686565b610f03565b005b34801561033857600080fd5b50610353600480360381019061034e9190611a36565b611164565b005b6003602052816000526040600020818154811061037157600080fd5b90600052602060002001600091509150505481565b600063150b7a0260e01b9050949350505050565b60018060000154905081565b6002600082815260200190815260200160002060050160019054906101000a900473ffffffffffffffffffffffffffffffffffffffff1673ffffffffffffffffffffffffffffffffffffffff163373ffffffffffffffffffffffffffffffffffffffff161461044a576040517f08c379a000000000000000000000000000000000000000000000000000000000815260040161044190611ae6565b60405180910390fd5b6002600082815260200190815260200160002060070160009054906101000a900473ffffffffffffffffffffffffffffffffffffffff1673ffffffffffffffffffffffffffffffffffffffff166342842e0e303360026000868152602001908152602001600020600801546040518463ffffffff1660e01b81526004016104d393929190611b06565b600060405180830381600087803b1580156104ed57600080fd5b505af1158015610501573d6000803e3d6000fd5b50505050600280600083815260200190815260200160002060050160006101000a81548160ff0219169083600481111561053e5761053d6116fd565b5b021790555050565b60006002600083815260200190815260200160002060050160019054906101000a900473ffffffffffffffffffffffffffffffffffffffff1673ffffffffffffffffffffffffffffffffffffffff16346040516105a290611b6e565b60006040518083038185875af1925050503d80600081146105df576040519150601f19603f3d011682016040523d82523d6000602084013e6105e4565b606091505b5050905080610628576040517f08c379a000000000000000000000000000000000000000000000000000000000815260040161061f90611bcf565b60405180910390fd5b5050565b60606000600360003373ffffffffffffffffffffffffffffffffffffffff1673ffffffffffffffffffffffffffffffffffffffff1681526020019081526020016000208054806020026020016040519081016040528092919081815260200182805480156106b957602002820191906000526020600020905b8154815260200190600101908083116106a5575b50505050509050606060005b82518110156108af57600260008483815181106106e5576106e4611bef565b5b60200260200101518152602001908152602001600020604051806101400160405290816000820160009054906101000a900473ffffffffffffffffffffffffffffffffffffffff1673ffffffffffffffffffffffffffffffffffffffff1673ffffffffffffffffffffffffffffffffffffffff168152602001600182015481526020016002820154815260200160038201548152602001600482015481526020016005820160009054906101000a900460ff1660048111156107aa576107a96116fd565b5b60048111156107bc576107bb6116fd565b5b81526020016005820160019054906101000a900473ffffffffffffffffffffffffffffffffffffffff1673ffffffffffffffffffffffffffffffffffffffff1673ffffffffffffffffffffffffffffffffffffffff168152602001600682015481526020016007820160009054906101000a900473ffffffffffffffffffffffffffffffffffffffff1673ffffffffffffffffffffffffffffffffffffffff1673ffffffffffffffffffffffffffffffffffffffff16815260200160088201548152505082828151811061089357610892611bef565b5b6020026020010181905250806108a890611c4d565b90506106c5565b50809250505090565b60026020528060005260406000206000915090508060000160009054906101000a900473ffffffffffffffffffffffffffffffffffffffff16908060010154908060020154908060030154908060040154908060050160009054906101000a900460ff16908060050160019054906101000a900473ffffffffffffffffffffffffffffffffffffffff16908060060154908060070160009054906101000a900473ffffffffffffffffffffffffffffffffffffffff1690806008015490508a565b6109816111e7565b61098b6000611265565b565b60008060009054906101000a900473ffffffffffffffffffffffffffffffffffffffff16905090565b6000808390503373ffffffffffffffffffffffffffffffffffffffff168173ffffffffffffffffffffffffffffffffffffffff16636352211e856040518263ffffffff1660e01b8152600401610a0c919061144c565b602060405180830381865afa158015610a29573d6000803e3d6000fd5b505050506040513d601f19601f82011682018060405250810190610a4d9190611caa565b73ffffffffffffffffffffffffffffffffffffffff1614610aa3576040517f08c379a0000000000000000000000000000000000000000000000000000000008152600401610a9a90611d23565b60405180910390fd5b610aad6001611329565b6040518061014001604052803373ffffffffffffffffffffffffffffffffffffffff168152602001888152602001878152602001868152602001610af1600161133f565b815260200160006004811115610b0a57610b096116fd565b5b8152602001600073ffffffffffffffffffffffffffffffffffffffff168152602001600081526020018573ffffffffffffffffffffffffffffffffffffffff1681526020018481525060026000610b61600161133f565b815260200190815260200160002060008201518160000160006101000a81548173ffffffffffffffffffffffffffffffffffffffff021916908373ffffffffffffffffffffffffffffffffffffffff1602179055506020820151816001015560408201518160020155606082015181600301556080820151816004015560a08201518160050160006101000a81548160ff02191690836004811115610c0957610c086116fd565b5b021790555060c08201518160050160016101000a81548173ffffffffffffffffffffffffffffffffffffffff021916908373ffffffffffffffffffffffffffffffffffffffff16021790555060e082015181600601556101008201518160070160006101000a81548173ffffffffffffffffffffffffffffffffffffffff021916908373ffffffffffffffffffffffffffffffffffffffff16021790555061012082015181600801559050508073ffffffffffffffffffffffffffffffffffffffff166342842e0e3330866040518463ffffffff1660e01b8152600401610cf293929190611b06565b600060405180830381600087803b158015610d0c57600080fd5b505af1158015610d20573d6000803e3d6000fd5b50505050600360003373ffffffffffffffffffffffffffffffffffffffff1673ffffffffffffffffffffffffffffffffffffffff168152602001908152602001600020610d6d600161133f565b9080600181540180825580915050600190039060005260206000200160009091909190915055610d9d600161133f565b91505095945050505050565b6002600082815260200190815260200160002060010154341015610e02576040517f08c379a0000000000000000000000000000000000000000000000000000000008152600401610df990611d8f565b60405180910390fd5b426002600083815260200190815260200160002060060181905550336002600083815260200190815260200160002060050160016101000a81548173ffffffffffffffffffffffffffffffffffffffff021916908373ffffffffffffffffffffffffffffffffffffffff1602179055506002600082815260200190815260200160002060000160009054906101000a900473ffffffffffffffffffffffffffffffffffffffff1673ffffffffffffffffffffffffffffffffffffffff166108fc349081150290604051600060405180830381858888f19350505050158015610eee573d6000803e3d6000fd5b5050565b6000610efe600161133f565b905090565b6002600082815260200190815260200160002060000160009054906101000a900473ffffffffffffffffffffffffffffffffffffffff1673ffffffffffffffffffffffffffffffffffffffff163373ffffffffffffffffffffffffffffffffffffffff1614610fa7576040517f08c379a0000000000000000000000000000000000000000000000000000000008152600401610f9e90611e21565b60405180910390fd5b60006004811115610fbb57610fba6116fd565b5b6002600083815260200190815260200160002060050160009054906101000a900460ff166004811115610ff157610ff06116fd565b5b14611031576040517f08c379a000000000000000000000000000000000000000000000000000000000815260040161102890611eb3565b60405180910390fd5b60046002600083815260200190815260200160002060050160006101000a81548160ff0219169083600481111561106b5761106a6116fd565b5b02179055506002600082815260200190815260200160002060070160009054906101000a900473ffffffffffffffffffffffffffffffffffffffff1673ffffffffffffffffffffffffffffffffffffffff166342842e0e306002600085815260200190815260200160002060050160019054906101000a900473ffffffffffffffffffffffffffffffffffffffff1660026000868152602001908152602001600020600801546040518463ffffffff1660e01b815260040161112f93929190611b06565b600060405180830381600087803b15801561114957600080fd5b505af115801561115d573d6000803e3d6000fd5b5050505050565b61116c6111e7565b600073ffffffffffffffffffffffffffffffffffffffff168173ffffffffffffffffffffffffffffffffffffffff16036111db576040517f08c379a00000000000000000000000000000000000000000000000000000000081526004016111d290611f45565b60405180910390fd5b6111e481611265565b50565b6111ef61134d565b73ffffffffffffffffffffffffffffffffffffffff1661120d61098d565b73ffffffffffffffffffffffffffffffffffffffff1614611263576040517f08c379a000000000000000000000000000000000000000000000000000000000815260040161125a90611fb1565b60405180910390fd5b565b60008060009054906101000a900473ffffffffffffffffffffffffffffffffffffffff169050816000806101000a81548173ffffffffffffffffffffffffffffffffffffffff021916908373ffffffffffffffffffffffffffffffffffffffff1602179055508173ffffffffffffffffffffffffffffffffffffffff168173ffffffffffffffffffffffffffffffffffffffff167f8be0079c531659141344cd1fd0a4f28419497f9722a3daafe3b4186f6b6457e060405160405180910390a35050565b6001816000016000828254019250508190555050565b600081600001549050919050565b600033905090565b6000604051905090565b600080fd5b600080fd5b600073ffffffffffffffffffffffffffffffffffffffff82169050919050565b600061139482611369565b9050919050565b6113a481611389565b81146113af57600080fd5b50565b6000813590506113c18161139b565b92915050565b6000819050919050565b6113da816113c7565b81146113e557600080fd5b50565b6000813590506113f7816113d1565b92915050565b600080604083850312156114145761141361135f565b5b6000611422858286016113b2565b9250506020611433858286016113e8565b9150509250929050565b611446816113c7565b82525050565b6000602082019050611461600083018461143d565b92915050565b600080fd5b600080fd5b6000601f19601f8301169050919050565b7f4e487b7100000000000000000000000000000000000000000000000000000000600052604160045260246000fd5b6114ba82611471565b810181811067ffffffffffffffff821117156114d9576114d8611482565b5b80604052505050565b60006114ec611355565b90506114f882826114b1565b919050565b600067ffffffffffffffff82111561151857611517611482565b5b61152182611471565b9050602081019050919050565b82818337600083830152505050565b600061155061154b846114fd565b6114e2565b90508281526020810184848401111561156c5761156b61146c565b5b61157784828561152e565b509392505050565b600082601f83011261159457611593611467565b5b81356115a484826020860161153d565b91505092915050565b600080600080608085870312156115c7576115c661135f565b5b60006115d5878288016113b2565b94505060206115e6878288016113b2565b93505060406115f7878288016113e8565b925050606085013567ffffffffffffffff81111561161857611617611364565b5b6116248782880161157f565b91505092959194509250565b60007fffffffff0000000000000000000000000000000000000000000000000000000082169050919050565b61166581611630565b82525050565b6000602082019050611680600083018461165c565b92915050565b60006020828403121561169c5761169b61135f565b5b60006116aa848285016113e8565b91505092915050565b600081519050919050565b600082825260208201905092915050565b6000819050602082019050919050565b6116e881611389565b82525050565b6116f7816113c7565b82525050565b7f4e487b7100000000000000000000000000000000000000000000000000000000600052602160045260246000fd5b6005811061173d5761173c6116fd565b5b50565b600081905061174e8261172c565b919050565b600061175e82611740565b9050919050565b61176e81611753565b82525050565b6101408201600082015161178b60008501826116df565b50602082015161179e60208501826116ee565b5060408201516117b160408501826116ee565b5060608201516117c460608501826116ee565b5060808201516117d760808501826116ee565b5060a08201516117ea60a0850182611765565b5060c08201516117fd60c08501826116df565b5060e082015161181060e08501826116ee565b506101008201516118256101008501826116df565b5061012082015161183a6101208501826116ee565b50505050565b600061184c8383611774565b6101408301905092915050565b6000602082019050919050565b6000611871826116b3565b61187b81856116be565b9350611886836116cf565b8060005b838110156118b757815161189e8882611840565b97506118a983611859565b92505060018101905061188a565b5085935050505092915050565b600060208201905081810360008301526118de8184611866565b905092915050565b6118ef81611389565b82525050565b6118fe81611753565b82525050565b60006101408201905061191a600083018d6118e6565b611927602083018c61143d565b611934604083018b61143d565b611941606083018a61143d565b61194e608083018961143d565b61195b60a08301886118f5565b61196860c08301876118e6565b61197560e083018661143d565b6119836101008301856118e6565b61199161012083018461143d565b9b9a5050505050505050505050565b60006020820190506119b560008301846118e6565b92915050565b600080600080600060a086880312156119d7576119d661135f565b5b60006119e5888289016113e8565b95505060206119f6888289016113e8565b9450506040611a07888289016113e8565b9350506060611a18888289016113b2565b9250506080611a29888289016113e8565b9150509295509295909350565b600060208284031215611a4c57611a4b61135f565b5b6000611a5a848285016113b2565b91505092915050565b600082825260208201905092915050565b7f4f6e6c792074686520706572736f6e2077686f206c656e7420746865206d6f6e60008201527f65792063616e20636c61696d2074686973000000000000000000000000000000602082015250565b6000611ad0603183611a63565b9150611adb82611a74565b604082019050919050565b60006020820190508181036000830152611aff81611ac3565b9050919050565b6000606082019050611b1b60008301866118e6565b611b2860208301856118e6565b611b35604083018461143d565b949350505050565b600081905092915050565b50565b6000611b58600083611b3d565b9150611b6382611b48565b600082019050919050565b6000611b7982611b4b565b9150819050919050565b7f4661696c656420746f2073656e64204574686572000000000000000000000000600082015250565b6000611bb9601483611a63565b9150611bc482611b83565b602082019050919050565b60006020820190508181036000830152611be881611bac565b9050919050565b7f4e487b7100000000000000000000000000000000000000000000000000000000600052603260045260246000fd5b7f4e487b7100000000000000000000000000000000000000000000000000000000600052601160045260246000fd5b6000611c58826113c7565b91507fffffffffffffffffffffffffffffffffffffffffffffffffffffffffffffffff8203611c8a57611c89611c1e565b5b600182019050919050565b600081519050611ca48161139b565b92915050565b600060208284031215611cc057611cbf61135f565b5b6000611cce84828501611c95565b91505092915050565b7f53656e646572206973206e6f7420746865206f776e6572000000000000000000600082015250565b6000611d0d601783611a63565b9150611d1882611cd7565b602082019050919050565b60006020820190508181036000830152611d3c81611d00565b9050919050565b7f4e6f7420656e6f75676820616d6f756e74206c656e7400000000000000000000600082015250565b6000611d79601683611a63565b9150611d8482611d43565b602082019050919050565b60006020820190508181036000830152611da881611d6c565b9050919050565b7f4f6e6c792074686520706572736f6e2077686f206d616465207468652072657160008201527f756573742063616e207769746864726177206974000000000000000000000000602082015250565b6000611e0b603483611a63565b9150611e1682611daf565b604082019050919050565b60006020820190508181036000830152611e3a81611dfe565b9050919050565b7f5468652063757272656e7420737461747573206f662050726f706f73616c206460008201527f6f65736e277420616c6c6f772074686973000000000000000000000000000000602082015250565b6000611e9d603183611a63565b9150611ea882611e41565b604082019050919050565b60006020820190508181036000830152611ecc81611e90565b9050919050565b7f4f776e61626c653a206e6577206f776e657220697320746865207a65726f206160008201527f6464726573730000000000000000000000000000000000000000000000000000602082015250565b6000611f2f602683611a63565b9150611f3a82611ed3565b604082019050919050565b60006020820190508181036000830152611f5e81611f22565b9050919050565b7f4f776e61626c653a2063616c6c6572206973206e6f7420746865206f776e6572600082015250565b6000611f9b602083611a63565b9150611fa682611f65565b602082019050919050565b60006020820190508181036000830152611fca81611f8e565b905091905056fea2646970667358221220efff9785d00f770e0d86e9799b185ef3c685f2b200edaef3d45bf84f2d579c9064736f6c63430008110033",
  "linkReferences": {},
  "deployedLinkReferences": {}
}