{
  "_format": "hh-sol-artifact-1",
  "contractName": "LenderBorrower",
  "sourceName": "contracts/LenderBorrower.sol",
  "abi": [
    {
      "inputs": [],
      "stateMutability": "nonpayable",
      "type": "constructor"
    },
    {
      "anonymous": false,
      "inputs": [
        {
          "indexed": true,
          "internalType": "address",
          "name": "previousOwner",
          "type": "address"
        },
        {
          "indexed": true,
          "internalType": "address",
          "name": "newOwner",
          "type": "address"
        }
      ],
      "name": "OwnershipTransferred",
      "type": "event"
    },
    {
      "inputs": [],
      "name": "_proposalId",
      "outputs": [
        {
          "internalType": "uint256",
          "name": "_value",
          "type": "uint256"
        }
      ],
      "stateMutability": "view",
      "type": "function"
    },
    {
      "inputs": [
        {
          "internalType": "uint256",
          "name": "",
          "type": "uint256"
        }
      ],
      "name": "borrowRequests",
      "outputs": [
        {
          "internalType": "address",
          "name": "borrower",
          "type": "address"
        },
        {
          "internalType": "uint256",
          "name": "amount",
          "type": "uint256"
        },
        {
          "internalType": "uint256",
          "name": "interestRate",
          "type": "uint256"
        },
        {
          "internalType": "uint256",
          "name": "repayMentPeriod",
          "type": "uint256"
        },
        {
          "internalType": "uint256",
          "name": "propasalId",
          "type": "uint256"
        },
        {
          "internalType": "enum LenderBorrower.Status",
          "name": "currentStatus",
          "type": "uint8"
        },
        {
          "internalType": "address",
          "name": "lender",
          "type": "address"
        },
        {
          "internalType": "uint256",
          "name": "timeTaken",
          "type": "uint256"
        },
        {
          "internalType": "address",
          "name": "nft",
          "type": "address"
        },
        {
          "internalType": "uint256",
          "name": "tokenId",
          "type": "uint256"
        }
      ],
      "stateMutability": "view",
      "type": "function"
    },
    {
      "inputs": [
        {
          "internalType": "uint256",
          "name": "_requiredProposalId",
          "type": "uint256"
        }
      ],
      "name": "calculateAmountDue",
      "outputs": [
        {
          "internalType": "uint256",
          "name": "_amountDue",
          "type": "uint256"
        }
      ],
      "stateMutability": "view",
      "type": "function"
    },
    {
      "inputs": [
        {
          "internalType": "uint256",
          "name": "_requiredProposalId",
          "type": "uint256"
        }
      ],
      "name": "claimNft",
      "outputs": [],
      "stateMutability": "nonpayable",
      "type": "function"
    },
    {
      "inputs": [
        {
          "internalType": "uint256",
          "name": "_requiredProposalId",
          "type": "uint256"
        }
      ],
      "name": "lendToProposal",
      "outputs": [],
      "stateMutability": "payable",
      "type": "function"
    },
    {
      "inputs": [
        {
          "internalType": "address",
          "name": "",
          "type": "address"
        },
        {
          "internalType": "address",
          "name": "",
          "type": "address"
        },
        {
          "internalType": "uint256",
          "name": "",
          "type": "uint256"
        },
        {
          "internalType": "bytes",
          "name": "",
          "type": "bytes"
        }
      ],
      "name": "onERC721Received",
      "outputs": [
        {
          "internalType": "bytes4",
          "name": "",
          "type": "bytes4"
        }
      ],
      "stateMutability": "nonpayable",
      "type": "function"
    },
    {
      "inputs": [],
      "name": "owner",
      "outputs": [
        {
          "internalType": "address",
          "name": "",
          "type": "address"
        }
      ],
      "stateMutability": "view",
      "type": "function"
    },
    {
      "inputs": [],
      "name": "renounceOwnership",
      "outputs": [],
      "stateMutability": "nonpayable",
      "type": "function"
    },
    {
      "inputs": [
        {
          "internalType": "uint256",
          "name": "_requiredProposalId",
          "type": "uint256"
        }
      ],
      "name": "repayAll",
      "outputs": [],
      "stateMutability": "payable",
      "type": "function"
    },
    {
      "inputs": [
        {
          "internalType": "address",
          "name": "",
          "type": "address"
        },
        {
          "internalType": "uint256",
          "name": "",
          "type": "uint256"
        }
      ],
      "name": "requestListByAddress",
      "outputs": [
        {
          "internalType": "uint256",
          "name": "",
          "type": "uint256"
        }
      ],
      "stateMutability": "view",
      "type": "function"
    },
    {
      "inputs": [],
      "name": "returnCurrentProposalId",
      "outputs": [
        {
          "internalType": "uint256",
          "name": "currentProposal",
          "type": "uint256"
        }
      ],
      "stateMutability": "view",
      "type": "function"
    },
    {
      "inputs": [
        {
          "internalType": "uint256",
          "name": "amount",
          "type": "uint256"
        },
        {
          "internalType": "uint256",
          "name": "interestRate",
          "type": "uint256"
        },
        {
          "internalType": "uint256",
          "name": "repayMentPeriod",
          "type": "uint256"
        },
        {
          "internalType": "address",
          "name": "nft",
          "type": "address"
        },
        {
          "internalType": "uint256",
          "name": "tokenId",
          "type": "uint256"
        }
      ],
      "name": "startBorrowProposal",
      "outputs": [
        {
          "internalType": "uint256",
          "name": "proposalId",
          "type": "uint256"
        }
      ],
      "stateMutability": "nonpayable",
      "type": "function"
    },
    {
      "inputs": [
        {
          "internalType": "address",
          "name": "newOwner",
          "type": "address"
        }
      ],
      "name": "transferOwnership",
      "outputs": [],
      "stateMutability": "nonpayable",
      "type": "function"
    },
    {
      "inputs": [
        {
          "internalType": "uint256",
          "name": "_requiredProposalId",
          "type": "uint256"
        }
      ],
      "name": "withDrawProposal",
      "outputs": [],
      "stateMutability": "nonpayable",
      "type": "function"
    }
  ],
  "bytecode": "0x608060405234801561001057600080fd5b5061002d61002261003260201b60201c565b61003a60201b60201c565b6100fe565b600033905090565b60008060009054906101000a900473ffffffffffffffffffffffffffffffffffffffff169050816000806101000a81548173ffffffffffffffffffffffffffffffffffffffff021916908373ffffffffffffffffffffffffffffffffffffffff1602179055508173ffffffffffffffffffffffffffffffffffffffff168173ffffffffffffffffffffffffffffffffffffffff167f8be0079c531659141344cd1fd0a4f28419497f9722a3daafe3b4186f6b6457e060405160405180910390a35050565b611fe08061010d6000396000f3fe6080604052600436106100dd5760003560e01c80638da5cb5b1161007f578063d974cc5711610059578063d974cc57146102ad578063de074896146102ea578063e54ba97614610315578063f2fde38b1461033e576100dd565b80638da5cb5b146102295780639cf7095b14610254578063b1c92b1814610291576100dd565b80632ec09d39116100bb5780632ec09d39146101875780633221be54146101b057806350d282fc146101cc578063715018a614610212576100dd565b806307000252146100e2578063150b7a021461011f5780632453abda1461015c575b600080fd5b3480156100ee57600080fd5b5061010960048036038101906101049190611410565b610367565b604051610116919061145f565b60405180910390f35b34801561012b57600080fd5b50610146600480360381019061014191906115c0565b610398565b604051610153919061167e565b60405180910390f35b34801561016857600080fd5b506101716103ac565b60405161017e919061145f565b60405180910390f35b34801561019357600080fd5b506101ae60048036038101906101a99190611699565b6103b8565b005b6101ca60048036038101906101c59190611699565b610558565b005b3480156101d857600080fd5b506101f360048036038101906101ee9190611699565b61072d565b6040516102099a9998979695949392919061174c565b60405180910390f35b34801561021e57600080fd5b506102276107ee565b005b34801561023557600080fd5b5061023e610802565b60405161024b91906117e8565b60405180910390f35b34801561026057600080fd5b5061027b60048036038101906102769190611803565b61082b565b604051610288919061145f565b60405180910390f35b6102ab60048036038101906102a69190611699565b610c1e565b005b3480156102b957600080fd5b506102d460048036038101906102cf9190611699565b610e60565b6040516102e1919061145f565b60405180910390f35b3480156102f657600080fd5b506102ff610f05565b60405161030c919061145f565b60405180910390f35b34801561032157600080fd5b5061033c60048036038101906103379190611699565b610f16565b005b34801561034a57600080fd5b506103656004803603810190610360919061187e565b611177565b005b6003602052816000526040600020818154811061038357600080fd5b90600052602060002001600091509150505481565b600063150b7a0260e01b9050949350505050565b60018060000154905081565b6002600082815260200190815260200160002060050160019054906101000a900473ffffffffffffffffffffffffffffffffffffffff1673ffffffffffffffffffffffffffffffffffffffff163373ffffffffffffffffffffffffffffffffffffffff161461045c576040517f08c379a00000000000000000000000000000000000000000000000000000000081526004016104539061192e565b60405180910390fd5b6002600082815260200190815260200160002060070160009054906101000a900473ffffffffffffffffffffffffffffffffffffffff1673ffffffffffffffffffffffffffffffffffffffff166342842e0e303360026000868152602001908152602001600020600801546040518463ffffffff1660e01b81526004016104e59392919061194e565b600060405180830381600087803b1580156104ff57600080fd5b505af1158015610513573d6000803e3d6000fd5b50505050600280600083815260200190815260200160002060050160006101000a81548160ff021916908360048111156105505761054f6116d5565b5b021790555050565b61056181610e60565b3410156105a3576040517f08c379a000000000000000000000000000000000000000000000000000000000815260040161059a906119f7565b60405180910390fd5b6002600082815260200190815260200160002060000160009054906101000a900473ffffffffffffffffffffffffffffffffffffffff1673ffffffffffffffffffffffffffffffffffffffff163373ffffffffffffffffffffffffffffffffffffffff1614610647576040517f08c379a000000000000000000000000000000000000000000000000000000000815260040161063e90611a63565b60405180910390fd5b60006002600083815260200190815260200160002060050160019054906101000a900473ffffffffffffffffffffffffffffffffffffffff1673ffffffffffffffffffffffffffffffffffffffff16346040516106a390611ab4565b60006040518083038185875af1925050503d80600081146106e0576040519150601f19603f3d011682016040523d82523d6000602084013e6106e5565b606091505b5050905080610729576040517f08c379a000000000000000000000000000000000000000000000000000000000815260040161072090611b15565b60405180910390fd5b5050565b60026020528060005260406000206000915090508060000160009054906101000a900473ffffffffffffffffffffffffffffffffffffffff16908060010154908060020154908060030154908060040154908060050160009054906101000a900460ff16908060050160019054906101000a900473ffffffffffffffffffffffffffffffffffffffff16908060060154908060070160009054906101000a900473ffffffffffffffffffffffffffffffffffffffff1690806008015490508a565b6107f66111fa565b6108006000611278565b565b60008060009054906101000a900473ffffffffffffffffffffffffffffffffffffffff16905090565b6000808390503373ffffffffffffffffffffffffffffffffffffffff168173ffffffffffffffffffffffffffffffffffffffff16636352211e856040518263ffffffff1660e01b8152600401610881919061145f565b602060405180830381865afa15801561089e573d6000803e3d6000fd5b505050506040513d601f19601f820116820180604052508101906108c29190611b4a565b73ffffffffffffffffffffffffffffffffffffffff1614610918576040517f08c379a000000000000000000000000000000000000000000000000000000000815260040161090f90611bc3565b60405180910390fd5b610922600161133c565b6040518061014001604052803373ffffffffffffffffffffffffffffffffffffffff1681526020018881526020018781526020018681526020016109666001611352565b81526020016000600481111561097f5761097e6116d5565b5b8152602001600073ffffffffffffffffffffffffffffffffffffffff168152602001600081526020018573ffffffffffffffffffffffffffffffffffffffff16815260200184815250600260006109d66001611352565b815260200190815260200160002060008201518160000160006101000a81548173ffffffffffffffffffffffffffffffffffffffff021916908373ffffffffffffffffffffffffffffffffffffffff1602179055506020820151816001015560408201518160020155606082015181600301556080820151816004015560a08201518160050160006101000a81548160ff02191690836004811115610a7e57610a7d6116d5565b5b021790555060c08201518160050160016101000a81548173ffffffffffffffffffffffffffffffffffffffff021916908373ffffffffffffffffffffffffffffffffffffffff16021790555060e082015181600601556101008201518160070160006101000a81548173ffffffffffffffffffffffffffffffffffffffff021916908373ffffffffffffffffffffffffffffffffffffffff16021790555061012082015181600801559050508073ffffffffffffffffffffffffffffffffffffffff166342842e0e3330866040518463ffffffff1660e01b8152600401610b679392919061194e565b600060405180830381600087803b158015610b8157600080fd5b505af1158015610b95573d6000803e3d6000fd5b50505050600360003373ffffffffffffffffffffffffffffffffffffffff1673ffffffffffffffffffffffffffffffffffffffff168152602001908152602001600020610be26001611352565b9080600181540180825580915050600190039060005260206000200160009091909190915055610c126001611352565b91505095945050505050565b6002600082815260200190815260200160002060010154341015610c77576040517f08c379a0000000000000000000000000000000000000000000000000000000008152600401610c6e90611c2f565b60405180910390fd5b60006004811115610c8b57610c8a6116d5565b5b6002600083815260200190815260200160002060050160009054906101000a900460ff166004811115610cc157610cc06116d5565b5b14610ccb57600080fd5b426002600083815260200190815260200160002060060181905550336002600083815260200190815260200160002060050160016101000a81548173ffffffffffffffffffffffffffffffffffffffff021916908373ffffffffffffffffffffffffffffffffffffffff16021790555060036002600083815260200190815260200160002060050160006101000a81548160ff02191690836004811115610d7557610d746116d5565b5b021790555060006002600083815260200190815260200160002060000160009054906101000a900473ffffffffffffffffffffffffffffffffffffffff1673ffffffffffffffffffffffffffffffffffffffff1634604051610dd690611ab4565b60006040518083038185875af1925050503d8060008114610e13576040519150601f19603f3d011682016040523d82523d6000602084013e610e18565b606091505b5050905080610e5c576040517f08c379a0000000000000000000000000000000000000000000000000000000008152600401610e5390611b15565b60405180910390fd5b5050565b6000806002600084815260200190815260200160002060010154905060006002600085815260200190815260200160002060020154905060006301e13380600260008781526020019081526020016000206006015442610ec09190611c7e565b610eca9190611ce1565b836064846001610eda9190611d12565b610ee49190611ce1565b610eee9190611d46565b610ef89190611d46565b9050809350505050919050565b6000610f116001611352565b905090565b6002600082815260200190815260200160002060000160009054906101000a900473ffffffffffffffffffffffffffffffffffffffff1673ffffffffffffffffffffffffffffffffffffffff163373ffffffffffffffffffffffffffffffffffffffff1614610fba576040517f08c379a0000000000000000000000000000000000000000000000000000000008152600401610fb190611dfa565b60405180910390fd5b60006004811115610fce57610fcd6116d5565b5b6002600083815260200190815260200160002060050160009054906101000a900460ff166004811115611004576110036116d5565b5b14611044576040517f08c379a000000000000000000000000000000000000000000000000000000000815260040161103b90611e8c565b60405180910390fd5b60046002600083815260200190815260200160002060050160006101000a81548160ff0219169083600481111561107e5761107d6116d5565b5b02179055506002600082815260200190815260200160002060070160009054906101000a900473ffffffffffffffffffffffffffffffffffffffff1673ffffffffffffffffffffffffffffffffffffffff166342842e0e306002600085815260200190815260200160002060050160019054906101000a900473ffffffffffffffffffffffffffffffffffffffff1660026000868152602001908152602001600020600801546040518463ffffffff1660e01b81526004016111429392919061194e565b600060405180830381600087803b15801561115c57600080fd5b505af1158015611170573d6000803e3d6000fd5b5050505050565b61117f6111fa565b600073ffffffffffffffffffffffffffffffffffffffff168173ffffffffffffffffffffffffffffffffffffffff16036111ee576040517f08c379a00000000000000000000000000000000000000000000000000000000081526004016111e590611f1e565b60405180910390fd5b6111f781611278565b50565b611202611360565b73ffffffffffffffffffffffffffffffffffffffff16611220610802565b73ffffffffffffffffffffffffffffffffffffffff1614611276576040517f08c379a000000000000000000000000000000000000000000000000000000000815260040161126d90611f8a565b60405180910390fd5b565b60008060009054906101000a900473ffffffffffffffffffffffffffffffffffffffff169050816000806101000a81548173ffffffffffffffffffffffffffffffffffffffff021916908373ffffffffffffffffffffffffffffffffffffffff1602179055508173ffffffffffffffffffffffffffffffffffffffff168173ffffffffffffffffffffffffffffffffffffffff167f8be0079c531659141344cd1fd0a4f28419497f9722a3daafe3b4186f6b6457e060405160405180910390a35050565b6001816000016000828254019250508190555050565b600081600001549050919050565b600033905090565b6000604051905090565b600080fd5b600080fd5b600073ffffffffffffffffffffffffffffffffffffffff82169050919050565b60006113a78261137c565b9050919050565b6113b78161139c565b81146113c257600080fd5b50565b6000813590506113d4816113ae565b92915050565b6000819050919050565b6113ed816113da565b81146113f857600080fd5b50565b60008135905061140a816113e4565b92915050565b6000806040838503121561142757611426611372565b5b6000611435858286016113c5565b9250506020611446858286016113fb565b9150509250929050565b611459816113da565b82525050565b60006020820190506114746000830184611450565b92915050565b600080fd5b600080fd5b6000601f19601f8301169050919050565b7f4e487b7100000000000000000000000000000000000000000000000000000000600052604160045260246000fd5b6114cd82611484565b810181811067ffffffffffffffff821117156114ec576114eb611495565b5b80604052505050565b60006114ff611368565b905061150b82826114c4565b919050565b600067ffffffffffffffff82111561152b5761152a611495565b5b61153482611484565b9050602081019050919050565b82818337600083830152505050565b600061156361155e84611510565b6114f5565b90508281526020810184848401111561157f5761157e61147f565b5b61158a848285611541565b509392505050565b600082601f8301126115a7576115a661147a565b5b81356115b7848260208601611550565b91505092915050565b600080600080608085870312156115da576115d9611372565b5b60006115e8878288016113c5565b94505060206115f9878288016113c5565b935050604061160a878288016113fb565b925050606085013567ffffffffffffffff81111561162b5761162a611377565b5b61163787828801611592565b91505092959194509250565b60007fffffffff0000000000000000000000000000000000000000000000000000000082169050919050565b61167881611643565b82525050565b6000602082019050611693600083018461166f565b92915050565b6000602082840312156116af576116ae611372565b5b60006116bd848285016113fb565b91505092915050565b6116cf8161139c565b82525050565b7f4e487b7100000000000000000000000000000000000000000000000000000000600052602160045260246000fd5b60058110611715576117146116d5565b5b50565b600081905061172682611704565b919050565b600061173682611718565b9050919050565b6117468161172b565b82525050565b600061014082019050611762600083018d6116c6565b61176f602083018c611450565b61177c604083018b611450565b611789606083018a611450565b6117966080830189611450565b6117a360a083018861173d565b6117b060c08301876116c6565b6117bd60e0830186611450565b6117cb6101008301856116c6565b6117d9610120830184611450565b9b9a5050505050505050505050565b60006020820190506117fd60008301846116c6565b92915050565b600080600080600060a0868803121561181f5761181e611372565b5b600061182d888289016113fb565b955050602061183e888289016113fb565b945050604061184f888289016113fb565b9350506060611860888289016113c5565b9250506080611871888289016113fb565b9150509295509295909350565b60006020828403121561189457611893611372565b5b60006118a2848285016113c5565b91505092915050565b600082825260208201905092915050565b7f4f6e6c792074686520706572736f6e2077686f206c656e7420746865206d6f6e60008201527f65792063616e20636c61696d2074686973000000000000000000000000000000602082015250565b60006119186031836118ab565b9150611923826118bc565b604082019050919050565b600060208201905081810360008301526119478161190b565b9050919050565b600060608201905061196360008301866116c6565b61197060208301856116c6565b61197d6040830184611450565b949350505050565b7f596f75206e65656420746f207265706179207468652066756c6c20616d6f756e60008201527f7400000000000000000000000000000000000000000000000000000000000000602082015250565b60006119e16021836118ab565b91506119ec82611985565b604082019050919050565b60006020820190508181036000830152611a10816119d4565b9050919050565b7f4f6e6c792074686520626f72726f7765722063616e2072657061792074686973600082015250565b6000611a4d6020836118ab565b9150611a5882611a17565b602082019050919050565b60006020820190508181036000830152611a7c81611a40565b9050919050565b600081905092915050565b50565b6000611a9e600083611a83565b9150611aa982611a8e565b600082019050919050565b6000611abf82611a91565b9150819050919050565b7f4661696c656420746f2073656e64204574686572000000000000000000000000600082015250565b6000611aff6014836118ab565b9150611b0a82611ac9565b602082019050919050565b60006020820190508181036000830152611b2e81611af2565b9050919050565b600081519050611b44816113ae565b92915050565b600060208284031215611b6057611b5f611372565b5b6000611b6e84828501611b35565b91505092915050565b7f53656e646572206973206e6f7420746865206f776e6572000000000000000000600082015250565b6000611bad6017836118ab565b9150611bb882611b77565b602082019050919050565b60006020820190508181036000830152611bdc81611ba0565b9050919050565b7f4e6f7420656e6f75676820616d6f756e74206c656e7400000000000000000000600082015250565b6000611c196016836118ab565b9150611c2482611be3565b602082019050919050565b60006020820190508181036000830152611c4881611c0c565b9050919050565b7f4e487b7100000000000000000000000000000000000000000000000000000000600052601160045260246000fd5b6000611c89826113da565b9150611c94836113da565b9250828203905081811115611cac57611cab611c4f565b5b92915050565b7f4e487b7100000000000000000000000000000000000000000000000000000000600052601260045260246000fd5b6000611cec826113da565b9150611cf7836113da565b925082611d0757611d06611cb2565b5b828204905092915050565b6000611d1d826113da565b9150611d28836113da565b9250828201905080821115611d4057611d3f611c4f565b5b92915050565b6000611d51826113da565b9150611d5c836113da565b9250828202611d6a816113da565b91508282048414831517611d8157611d80611c4f565b5b5092915050565b7f4f6e6c792074686520706572736f6e2077686f206d616465207468652072657160008201527f756573742063616e207769746864726177206974000000000000000000000000602082015250565b6000611de46034836118ab565b9150611def82611d88565b604082019050919050565b60006020820190508181036000830152611e1381611dd7565b9050919050565b7f5468652063757272656e7420737461747573206f662050726f706f73616c206460008201527f6f65736e277420616c6c6f772074686973000000000000000000000000000000602082015250565b6000611e766031836118ab565b9150611e8182611e1a565b604082019050919050565b60006020820190508181036000830152611ea581611e69565b9050919050565b7f4f776e61626c653a206e6577206f776e657220697320746865207a65726f206160008201527f6464726573730000000000000000000000000000000000000000000000000000602082015250565b6000611f086026836118ab565b9150611f1382611eac565b604082019050919050565b60006020820190508181036000830152611f3781611efb565b9050919050565b7f4f776e61626c653a2063616c6c6572206973206e6f7420746865206f776e6572600082015250565b6000611f746020836118ab565b9150611f7f82611f3e565b602082019050919050565b60006020820190508181036000830152611fa381611f67565b905091905056fea2646970667358221220fd2065632bfd469ba7261534dc59ac792e279d16fab80064f4565fcdc49cdfdd64736f6c63430008110033",
  "linkReferences": {},
  "deployedLinkReferences": {}
}