{
  "_format": "hh-sol-artifact-1",
  "contractName": "ZappTokenNFT",
  "sourceName": "contracts/ZappTokenNFT.sol",
  "abi": [
    {
      "inputs": [],
      "stateMutability": "nonpayable",
      "type": "constructor"
    },
    {
      "anonymous": false,
      "inputs": [
        {
          "indexed": true,
          "internalType": "address",
          "name": "owner",
          "type": "address"
        },
        {
          "indexed": true,
          "internalType": "address",
          "name": "approved",
          "type": "address"
        },
        {
          "indexed": true,
          "internalType": "uint256",
          "name": "tokenId",
          "type": "uint256"
        }
      ],
      "name": "Approval",
      "type": "event"
    },
    {
      "anonymous": false,
      "inputs": [
        {
          "indexed": true,
          "internalType": "address",
          "name": "owner",
          "type": "address"
        },
        {
          "indexed": true,
          "internalType": "address",
          "name": "operator",
          "type": "address"
        },
        {
          "indexed": false,
          "internalType": "bool",
          "name": "approved",
          "type": "bool"
        }
      ],
      "name": "ApprovalForAll",
      "type": "event"
    },
    {
      "anonymous": false,
      "inputs": [
        {
          "indexed": true,
          "internalType": "address",
          "name": "previousOwner",
          "type": "address"
        },
        {
          "indexed": true,
          "internalType": "address",
          "name": "newOwner",
          "type": "address"
        }
      ],
      "name": "OwnershipTransferred",
      "type": "event"
    },
    {
      "anonymous": false,
      "inputs": [
        {
          "indexed": true,
          "internalType": "address",
          "name": "from",
          "type": "address"
        },
        {
          "indexed": true,
          "internalType": "address",
          "name": "to",
          "type": "address"
        },
        {
          "indexed": true,
          "internalType": "uint256",
          "name": "tokenId",
          "type": "uint256"
        }
      ],
      "name": "Transfer",
      "type": "event"
    },
    {
      "inputs": [
        {
          "internalType": "address",
          "name": "to",
          "type": "address"
        },
        {
          "internalType": "uint256",
          "name": "tokenId",
          "type": "uint256"
        }
      ],
      "name": "approve",
      "outputs": [],
      "stateMutability": "nonpayable",
      "type": "function"
    },
    {
      "inputs": [
        {
          "internalType": "address",
          "name": "owner",
          "type": "address"
        }
      ],
      "name": "balanceOf",
      "outputs": [
        {
          "internalType": "uint256",
          "name": "",
          "type": "uint256"
        }
      ],
      "stateMutability": "view",
      "type": "function"
    },
    {
      "inputs": [],
      "name": "currentTokenId",
      "outputs": [
        {
          "internalType": "uint256",
          "name": "tokenIdCurrent",
          "type": "uint256"
        }
      ],
      "stateMutability": "view",
      "type": "function"
    },
    {
      "inputs": [
        {
          "internalType": "uint256",
          "name": "tokenId",
          "type": "uint256"
        }
      ],
      "name": "getApproved",
      "outputs": [
        {
          "internalType": "address",
          "name": "",
          "type": "address"
        }
      ],
      "stateMutability": "view",
      "type": "function"
    },
    {
      "inputs": [
        {
          "internalType": "address",
          "name": "owner",
          "type": "address"
        },
        {
          "internalType": "address",
          "name": "operator",
          "type": "address"
        }
      ],
      "name": "isApprovedForAll",
      "outputs": [
        {
          "internalType": "bool",
          "name": "",
          "type": "bool"
        }
      ],
      "stateMutability": "view",
      "type": "function"
    },
    {
      "inputs": [],
      "name": "name",
      "outputs": [
        {
          "internalType": "string",
          "name": "",
          "type": "string"
        }
      ],
      "stateMutability": "view",
      "type": "function"
    },
    {
      "inputs": [],
      "name": "owner",
      "outputs": [
        {
          "internalType": "address",
          "name": "",
          "type": "address"
        }
      ],
      "stateMutability": "view",
      "type": "function"
    },
    {
      "inputs": [
        {
          "internalType": "uint256",
          "name": "tokenId",
          "type": "uint256"
        }
      ],
      "name": "ownerOf",
      "outputs": [
        {
          "internalType": "address",
          "name": "",
          "type": "address"
        }
      ],
      "stateMutability": "view",
      "type": "function"
    },
    {
      "inputs": [],
      "name": "renounceOwnership",
      "outputs": [],
      "stateMutability": "nonpayable",
      "type": "function"
    },
    {
      "inputs": [
        {
          "internalType": "address",
          "name": "to",
          "type": "address"
        },
        {
          "internalType": "string",
          "name": "uri",
          "type": "string"
        }
      ],
      "name": "safeMint",
      "outputs": [],
      "stateMutability": "nonpayable",
      "type": "function"
    },
    {
      "inputs": [
        {
          "internalType": "address",
          "name": "from",
          "type": "address"
        },
        {
          "internalType": "address",
          "name": "to",
          "type": "address"
        },
        {
          "internalType": "uint256",
          "name": "tokenId",
          "type": "uint256"
        }
      ],
      "name": "safeTransferFrom",
      "outputs": [],
      "stateMutability": "nonpayable",
      "type": "function"
    },
    {
      "inputs": [
        {
          "internalType": "address",
          "name": "from",
          "type": "address"
        },
        {
          "internalType": "address",
          "name": "to",
          "type": "address"
        },
        {
          "internalType": "uint256",
          "name": "tokenId",
          "type": "uint256"
        },
        {
          "internalType": "bytes",
          "name": "data",
          "type": "bytes"
        }
      ],
      "name": "safeTransferFrom",
      "outputs": [],
      "stateMutability": "nonpayable",
      "type": "function"
    },
    {
      "inputs": [
        {
          "internalType": "address",
          "name": "operator",
          "type": "address"
        },
        {
          "internalType": "bool",
          "name": "approved",
          "type": "bool"
        }
      ],
      "name": "setApprovalForAll",
      "outputs": [],
      "stateMutability": "nonpayable",
      "type": "function"
    },
    {
      "inputs": [
        {
          "internalType": "bytes4",
          "name": "interfaceId",
          "type": "bytes4"
        }
      ],
      "name": "supportsInterface",
      "outputs": [
        {
          "internalType": "bool",
          "name": "",
          "type": "bool"
        }
      ],
      "stateMutability": "view",
      "type": "function"
    },
    {
      "inputs": [],
      "name": "symbol",
      "outputs": [
        {
          "internalType": "string",
          "name": "",
          "type": "string"
        }
      ],
      "stateMutability": "view",
      "type": "function"
    },
    {
      "inputs": [
        {
          "internalType": "uint256",
          "name": "tokenId",
          "type": "uint256"
        }
      ],
      "name": "tokenURI",
      "outputs": [
        {
          "internalType": "string",
          "name": "",
          "type": "string"
        }
      ],
      "stateMutability": "view",
      "type": "function"
    },
    {
      "inputs": [
        {
          "internalType": "address",
          "name": "from",
          "type": "address"
        },
        {
          "internalType": "address",
          "name": "to",
          "type": "address"
        },
        {
          "internalType": "uint256",
          "name": "tokenId",
          "type": "uint256"
        }
      ],
      "name": "transferFrom",
      "outputs": [],
      "stateMutability": "nonpayable",
      "type": "function"
    },
    {
      "inputs": [
        {
          "internalType": "address",
          "name": "newOwner",
          "type": "address"
        }
      ],
      "name": "transferOwnership",
      "outputs": [],
      "stateMutability": "nonpayable",
      "type": "function"
    }
  ],
  "bytecode": "0x60806040523480156200001157600080fd5b506040518060400160405280600c81526020017f5a617070546f6b656e4e465400000000000000000000000000000000000000008152506040518060400160405280600381526020017f5a544e000000000000000000000000000000000000000000000000000000000081525081600090816200008f919062000412565b508060019081620000a1919062000412565b505050620000c4620000b8620000ca60201b60201c565b620000d260201b60201c565b620004f9565b600033905090565b6000600760009054906101000a900473ffffffffffffffffffffffffffffffffffffffff16905081600760006101000a81548173ffffffffffffffffffffffffffffffffffffffff021916908373ffffffffffffffffffffffffffffffffffffffff1602179055508173ffffffffffffffffffffffffffffffffffffffff168173ffffffffffffffffffffffffffffffffffffffff167f8be0079c531659141344cd1fd0a4f28419497f9722a3daafe3b4186f6b6457e060405160405180910390a35050565b600081519050919050565b7f4e487b7100000000000000000000000000000000000000000000000000000000600052604160045260246000fd5b7f4e487b7100000000000000000000000000000000000000000000000000000000600052602260045260246000fd5b600060028204905060018216806200021a57607f821691505b60208210810362000230576200022f620001d2565b5b50919050565b60008190508160005260206000209050919050565b60006020601f8301049050919050565b600082821b905092915050565b6000600883026200029a7fffffffffffffffffffffffffffffffffffffffffffffffffffffffffffffffff826200025b565b620002a686836200025b565b95508019841693508086168417925050509392505050565b6000819050919050565b6000819050919050565b6000620002f3620002ed620002e784620002be565b620002c8565b620002be565b9050919050565b6000819050919050565b6200030f83620002d2565b620003276200031e82620002fa565b84845462000268565b825550505050565b600090565b6200033e6200032f565b6200034b81848462000304565b505050565b5b8181101562000373576200036760008262000334565b60018101905062000351565b5050565b601f821115620003c2576200038c8162000236565b62000397846200024b565b81016020851015620003a7578190505b620003bf620003b6856200024b565b83018262000350565b50505b505050565b600082821c905092915050565b6000620003e760001984600802620003c7565b1980831691505092915050565b6000620004028383620003d4565b9150826002028217905092915050565b6200041d8262000198565b67ffffffffffffffff811115620004395762000438620001a3565b5b62000445825462000201565b6200045282828562000377565b600060209050601f8311600181146200048a576000841562000475578287015190505b620004818582620003f4565b865550620004f1565b601f1984166200049a8662000236565b60005b82811015620004c4578489015182556001820191506020850194506020810190506200049d565b86831015620004e45784890151620004e0601f891682620003d4565b8355505b6001600288020188555050505b505050505050565b61301880620005096000396000f3fe608060405234801561001057600080fd5b50600436106101155760003560e01c8063715018a6116100a2578063b88d4fde11610071578063b88d4fde146102cc578063c87b56dd146102e8578063d204c45e14610318578063e985e9c514610334578063f2fde38b1461036457610115565b8063715018a61461026a5780638da5cb5b1461027457806395d89b4114610292578063a22cb465146102b057610115565b8063095ea7b3116100e9578063095ea7b3146101b657806323b872dd146101d257806342842e0e146101ee5780636352211e1461020a57806370a082311461023a57610115565b80629a9b7b1461011a57806301ffc9a71461013857806306fdde0314610168578063081812fc14610186575b600080fd5b610122610380565b60405161012f9190611d1f565b60405180910390f35b610152600480360381019061014d9190611da6565b610391565b60405161015f9190611dee565b60405180910390f35b610170610473565b60405161017d9190611e99565b60405180910390f35b6101a0600480360381019061019b9190611ee7565b610505565b6040516101ad9190611f55565b60405180910390f35b6101d060048036038101906101cb9190611f9c565b61054b565b005b6101ec60048036038101906101e79190611fdc565b610662565b005b61020860048036038101906102039190611fdc565b6106c2565b005b610224600480360381019061021f9190611ee7565b6106e2565b6040516102319190611f55565b60405180910390f35b610254600480360381019061024f919061202f565b610768565b6040516102619190611d1f565b60405180910390f35b61027261081f565b005b61027c610833565b6040516102899190611f55565b60405180910390f35b61029a61085d565b6040516102a79190611e99565b60405180910390f35b6102ca60048036038101906102c59190612088565b6108ef565b005b6102e660048036038101906102e191906121fd565b610905565b005b61030260048036038101906102fd9190611ee7565b610967565b60405161030f9190611e99565b60405180910390f35b610332600480360381019061032d9190612321565b610979565b005b61034e6004803603810190610349919061237d565b6109b2565b60405161035b9190611dee565b60405180910390f35b61037e6004803603810190610379919061202f565b610a46565b005b600061038c6008610ac9565b905090565b60007f80ac58cd000000000000000000000000000000000000000000000000000000007bffffffffffffffffffffffffffffffffffffffffffffffffffffffff1916827bffffffffffffffffffffffffffffffffffffffffffffffffffffffff1916148061045c57507f5b5e139f000000000000000000000000000000000000000000000000000000007bffffffffffffffffffffffffffffffffffffffffffffffffffffffff1916827bffffffffffffffffffffffffffffffffffffffffffffffffffffffff1916145b8061046c575061046b82610ad7565b5b9050919050565b606060008054610482906123ec565b80601f01602080910402602001604051908101604052809291908181526020018280546104ae906123ec565b80156104fb5780601f106104d0576101008083540402835291602001916104fb565b820191906000526020600020905b8154815290600101906020018083116104de57829003601f168201915b5050505050905090565b600061051082610b41565b6004600083815260200190815260200160002060009054906101000a900473ffffffffffffffffffffffffffffffffffffffff169050919050565b6000610556826106e2565b90508073ffffffffffffffffffffffffffffffffffffffff168373ffffffffffffffffffffffffffffffffffffffff16036105c6576040517f08c379a00000000000000000000000000000000000000000000000000000000081526004016105bd9061248f565b60405180910390fd5b8073ffffffffffffffffffffffffffffffffffffffff166105e5610b8c565b73ffffffffffffffffffffffffffffffffffffffff16148061061457506106138161060e610b8c565b6109b2565b5b610653576040517f08c379a000000000000000000000000000000000000000000000000000000000815260040161064a90612521565b60405180910390fd5b61065d8383610b94565b505050565b61067361066d610b8c565b82610c4d565b6106b2576040517f08c379a00000000000000000000000000000000000000000000000000000000081526004016106a9906125b3565b60405180910390fd5b6106bd838383610ce2565b505050565b6106dd83838360405180602001604052806000815250610905565b505050565b6000806106ee83610fdb565b9050600073ffffffffffffffffffffffffffffffffffffffff168173ffffffffffffffffffffffffffffffffffffffff160361075f576040517f08c379a00000000000000000000000000000000000000000000000000000000081526004016107569061261f565b60405180910390fd5b80915050919050565b60008073ffffffffffffffffffffffffffffffffffffffff168273ffffffffffffffffffffffffffffffffffffffff16036107d8576040517f08c379a00000000000000000000000000000000000000000000000000000000081526004016107cf906126b1565b60405180910390fd5b600360008373ffffffffffffffffffffffffffffffffffffffff1673ffffffffffffffffffffffffffffffffffffffff168152602001908152602001600020549050919050565b610827611018565b6108316000611096565b565b6000600760009054906101000a900473ffffffffffffffffffffffffffffffffffffffff16905090565b60606001805461086c906123ec565b80601f0160208091040260200160405190810160405280929190818152602001828054610898906123ec565b80156108e55780601f106108ba576101008083540402835291602001916108e5565b820191906000526020600020905b8154815290600101906020018083116108c857829003601f168201915b5050505050905090565b6109016108fa610b8c565b838361115c565b5050565b610916610910610b8c565b83610c4d565b610955576040517f08c379a000000000000000000000000000000000000000000000000000000000815260040161094c906125b3565b60405180910390fd5b610961848484846112c8565b50505050565b606061097282611324565b9050919050565b610981611018565b600061098d6008610ac9565b90506109996008611436565b6109a3838261144c565b6109ad818361146a565b505050565b6000600560008473ffffffffffffffffffffffffffffffffffffffff1673ffffffffffffffffffffffffffffffffffffffff16815260200190815260200160002060008373ffffffffffffffffffffffffffffffffffffffff1673ffffffffffffffffffffffffffffffffffffffff16815260200190815260200160002060009054906101000a900460ff16905092915050565b610a4e611018565b600073ffffffffffffffffffffffffffffffffffffffff168173ffffffffffffffffffffffffffffffffffffffff1603610abd576040517f08c379a0000000000000000000000000000000000000000000000000000000008152600401610ab490612743565b60405180910390fd5b610ac681611096565b50565b600081600001549050919050565b60007f01ffc9a7000000000000000000000000000000000000000000000000000000007bffffffffffffffffffffffffffffffffffffffffffffffffffffffff1916827bffffffffffffffffffffffffffffffffffffffffffffffffffffffff1916149050919050565b610b4a816114d7565b610b89576040517f08c379a0000000000000000000000000000000000000000000000000000000008152600401610b809061261f565b60405180910390fd5b50565b600033905090565b816004600083815260200190815260200160002060006101000a81548173ffffffffffffffffffffffffffffffffffffffff021916908373ffffffffffffffffffffffffffffffffffffffff160217905550808273ffffffffffffffffffffffffffffffffffffffff16610c07836106e2565b73ffffffffffffffffffffffffffffffffffffffff167f8c5be1e5ebec7d5bd14f71427d1e84f3dd0314c0f7b2291e5b200ac8c7c3b92560405160405180910390a45050565b600080610c59836106e2565b90508073ffffffffffffffffffffffffffffffffffffffff168473ffffffffffffffffffffffffffffffffffffffff161480610c9b5750610c9a81856109b2565b5b80610cd957508373ffffffffffffffffffffffffffffffffffffffff16610cc184610505565b73ffffffffffffffffffffffffffffffffffffffff16145b91505092915050565b8273ffffffffffffffffffffffffffffffffffffffff16610d02826106e2565b73ffffffffffffffffffffffffffffffffffffffff1614610d58576040517f08c379a0000000000000000000000000000000000000000000000000000000008152600401610d4f906127d5565b60405180910390fd5b600073ffffffffffffffffffffffffffffffffffffffff168273ffffffffffffffffffffffffffffffffffffffff1603610dc7576040517f08c379a0000000000000000000000000000000000000000000000000000000008152600401610dbe90612867565b60405180910390fd5b610dd48383836001611518565b8273ffffffffffffffffffffffffffffffffffffffff16610df4826106e2565b73ffffffffffffffffffffffffffffffffffffffff1614610e4a576040517f08c379a0000000000000000000000000000000000000000000000000000000008152600401610e41906127d5565b60405180910390fd5b6004600082815260200190815260200160002060006101000a81549073ffffffffffffffffffffffffffffffffffffffff02191690556001600360008573ffffffffffffffffffffffffffffffffffffffff1673ffffffffffffffffffffffffffffffffffffffff168152602001908152602001600020600082825403925050819055506001600360008473ffffffffffffffffffffffffffffffffffffffff1673ffffffffffffffffffffffffffffffffffffffff16815260200190815260200160002060008282540192505081905550816002600083815260200190815260200160002060006101000a81548173ffffffffffffffffffffffffffffffffffffffff021916908373ffffffffffffffffffffffffffffffffffffffff160217905550808273ffffffffffffffffffffffffffffffffffffffff168473ffffffffffffffffffffffffffffffffffffffff167fddf252ad1be2c89b69c2b068fc378daa952ba7f163c4a11628f55a4df523b3ef60405160405180910390a4610fd6838383600161163e565b505050565b60006002600083815260200190815260200160002060009054906101000a900473ffffffffffffffffffffffffffffffffffffffff169050919050565b611020610b8c565b73ffffffffffffffffffffffffffffffffffffffff1661103e610833565b73ffffffffffffffffffffffffffffffffffffffff1614611094576040517f08c379a000000000000000000000000000000000000000000000000000000000815260040161108b906128d3565b60405180910390fd5b565b6000600760009054906101000a900473ffffffffffffffffffffffffffffffffffffffff16905081600760006101000a81548173ffffffffffffffffffffffffffffffffffffffff021916908373ffffffffffffffffffffffffffffffffffffffff1602179055508173ffffffffffffffffffffffffffffffffffffffff168173ffffffffffffffffffffffffffffffffffffffff167f8be0079c531659141344cd1fd0a4f28419497f9722a3daafe3b4186f6b6457e060405160405180910390a35050565b8173ffffffffffffffffffffffffffffffffffffffff168373ffffffffffffffffffffffffffffffffffffffff16036111ca576040517f08c379a00000000000000000000000000000000000000000000000000000000081526004016111c19061293f565b60405180910390fd5b80600560008573ffffffffffffffffffffffffffffffffffffffff1673ffffffffffffffffffffffffffffffffffffffff16815260200190815260200160002060008473ffffffffffffffffffffffffffffffffffffffff1673ffffffffffffffffffffffffffffffffffffffff16815260200190815260200160002060006101000a81548160ff0219169083151502179055508173ffffffffffffffffffffffffffffffffffffffff168373ffffffffffffffffffffffffffffffffffffffff167f17307eab39ab6107e8899845ad3d59bd9653f200f220920489ca2b5937696c31836040516112bb9190611dee565b60405180910390a3505050565b6112d3848484610ce2565b6112df84848484611644565b61131e576040517f08c379a0000000000000000000000000000000000000000000000000000000008152600401611315906129d1565b60405180910390fd5b50505050565b606061132f82610b41565b600060066000848152602001908152602001600020805461134f906123ec565b80601f016020809104026020016040519081016040528092919081815260200182805461137b906123ec565b80156113c85780601f1061139d576101008083540402835291602001916113c8565b820191906000526020600020905b8154815290600101906020018083116113ab57829003601f168201915b5050505050905060006113d96117cb565b905060008151036113ee578192505050611431565b60008251111561142357808260405160200161140b929190612a2d565b60405160208183030381529060405292505050611431565b61142c846117e2565b925050505b919050565b6001816000016000828254019250508190555050565b61146682826040518060200160405280600081525061184a565b5050565b611473826114d7565b6114b2576040517f08c379a00000000000000000000000000000000000000000000000000000000081526004016114a990612ac3565b60405180910390fd5b806006600084815260200190815260200160002090816114d29190612c8f565b505050565b60008073ffffffffffffffffffffffffffffffffffffffff166114f983610fdb565b73ffffffffffffffffffffffffffffffffffffffff1614159050919050565b600181111561163857600073ffffffffffffffffffffffffffffffffffffffff168473ffffffffffffffffffffffffffffffffffffffff16146115ac5780600360008673ffffffffffffffffffffffffffffffffffffffff1673ffffffffffffffffffffffffffffffffffffffff16815260200190815260200160002060008282546115a49190612d90565b925050819055505b600073ffffffffffffffffffffffffffffffffffffffff168373ffffffffffffffffffffffffffffffffffffffff16146116375780600360008573ffffffffffffffffffffffffffffffffffffffff1673ffffffffffffffffffffffffffffffffffffffff168152602001908152602001600020600082825461162f9190612dc4565b925050819055505b5b50505050565b50505050565b60006116658473ffffffffffffffffffffffffffffffffffffffff166118a5565b156117be578373ffffffffffffffffffffffffffffffffffffffff1663150b7a0261168e610b8c565b8786866040518563ffffffff1660e01b81526004016116b09493929190612e4d565b6020604051808303816000875af19250505080156116ec57506040513d601f19601f820116820180604052508101906116e99190612eae565b60015b61176e573d806000811461171c576040519150601f19603f3d011682016040523d82523d6000602084013e611721565b606091505b506000815103611766576040517f08c379a000000000000000000000000000000000000000000000000000000000815260040161175d906129d1565b60405180910390fd5b805181602001fd5b63150b7a0260e01b7bffffffffffffffffffffffffffffffffffffffffffffffffffffffff1916817bffffffffffffffffffffffffffffffffffffffffffffffffffffffff1916149150506117c3565b600190505b949350505050565b606060405180602001604052806000815250905090565b60606117ed82610b41565b60006117f76117cb565b905060008151116118175760405180602001604052806000815250611842565b80611821846118c8565b604051602001611832929190612a2d565b6040516020818303038152906040525b915050919050565b6118548383611996565b6118616000848484611644565b6118a0576040517f08c379a0000000000000000000000000000000000000000000000000000000008152600401611897906129d1565b60405180910390fd5b505050565b6000808273ffffffffffffffffffffffffffffffffffffffff163b119050919050565b6060600060016118d784611bb3565b01905060008167ffffffffffffffff8111156118f6576118f56120d2565b5b6040519080825280601f01601f1916602001820160405280156119285781602001600182028036833780820191505090505b509050600082602001820190505b60011561198b578080600190039150507f3031323334353637383961626364656600000000000000000000000000000000600a86061a8153600a858161197f5761197e612edb565b5b04945060008503611936575b819350505050919050565b600073ffffffffffffffffffffffffffffffffffffffff168273ffffffffffffffffffffffffffffffffffffffff1603611a05576040517f08c379a00000000000000000000000000000000000000000000000000000000081526004016119fc90612f56565b60405180910390fd5b611a0e816114d7565b15611a4e576040517f08c379a0000000000000000000000000000000000000000000000000000000008152600401611a4590612fc2565b60405180910390fd5b611a5c600083836001611518565b611a65816114d7565b15611aa5576040517f08c379a0000000000000000000000000000000000000000000000000000000008152600401611a9c90612fc2565b60405180910390fd5b6001600360008473ffffffffffffffffffffffffffffffffffffffff1673ffffffffffffffffffffffffffffffffffffffff16815260200190815260200160002060008282540192505081905550816002600083815260200190815260200160002060006101000a81548173ffffffffffffffffffffffffffffffffffffffff021916908373ffffffffffffffffffffffffffffffffffffffff160217905550808273ffffffffffffffffffffffffffffffffffffffff16600073ffffffffffffffffffffffffffffffffffffffff167fddf252ad1be2c89b69c2b068fc378daa952ba7f163c4a11628f55a4df523b3ef60405160405180910390a4611baf60008383600161163e565b5050565b600080600090507a184f03e93ff9f4daa797ed6e38ed64bf6a1f0100000000000000008310611c11577a184f03e93ff9f4daa797ed6e38ed64bf6a1f0100000000000000008381611c0757611c06612edb565b5b0492506040810190505b6d04ee2d6d415b85acef81000000008310611c4e576d04ee2d6d415b85acef81000000008381611c4457611c43612edb565b5b0492506020810190505b662386f26fc100008310611c7d57662386f26fc100008381611c7357611c72612edb565b5b0492506010810190505b6305f5e1008310611ca6576305f5e1008381611c9c57611c9b612edb565b5b0492506008810190505b6127108310611ccb576127108381611cc157611cc0612edb565b5b0492506004810190505b60648310611cee5760648381611ce457611ce3612edb565b5b0492506002810190505b600a8310611cfd576001810190505b80915050919050565b6000819050919050565b611d1981611d06565b82525050565b6000602082019050611d346000830184611d10565b92915050565b6000604051905090565b600080fd5b600080fd5b60007fffffffff0000000000000000000000000000000000000000000000000000000082169050919050565b611d8381611d4e565b8114611d8e57600080fd5b50565b600081359050611da081611d7a565b92915050565b600060208284031215611dbc57611dbb611d44565b5b6000611dca84828501611d91565b91505092915050565b60008115159050919050565b611de881611dd3565b82525050565b6000602082019050611e036000830184611ddf565b92915050565b600081519050919050565b600082825260208201905092915050565b60005b83811015611e43578082015181840152602081019050611e28565b60008484015250505050565b6000601f19601f8301169050919050565b6000611e6b82611e09565b611e758185611e14565b9350611e85818560208601611e25565b611e8e81611e4f565b840191505092915050565b60006020820190508181036000830152611eb38184611e60565b905092915050565b611ec481611d06565b8114611ecf57600080fd5b50565b600081359050611ee181611ebb565b92915050565b600060208284031215611efd57611efc611d44565b5b6000611f0b84828501611ed2565b91505092915050565b600073ffffffffffffffffffffffffffffffffffffffff82169050919050565b6000611f3f82611f14565b9050919050565b611f4f81611f34565b82525050565b6000602082019050611f6a6000830184611f46565b92915050565b611f7981611f34565b8114611f8457600080fd5b50565b600081359050611f9681611f70565b92915050565b60008060408385031215611fb357611fb2611d44565b5b6000611fc185828601611f87565b9250506020611fd285828601611ed2565b9150509250929050565b600080600060608486031215611ff557611ff4611d44565b5b600061200386828701611f87565b935050602061201486828701611f87565b925050604061202586828701611ed2565b9150509250925092565b60006020828403121561204557612044611d44565b5b600061205384828501611f87565b91505092915050565b61206581611dd3565b811461207057600080fd5b50565b6000813590506120828161205c565b92915050565b6000806040838503121561209f5761209e611d44565b5b60006120ad85828601611f87565b92505060206120be85828601612073565b9150509250929050565b600080fd5b600080fd5b7f4e487b7100000000000000000000000000000000000000000000000000000000600052604160045260246000fd5b61210a82611e4f565b810181811067ffffffffffffffff82111715612129576121286120d2565b5b80604052505050565b600061213c611d3a565b90506121488282612101565b919050565b600067ffffffffffffffff821115612168576121676120d2565b5b61217182611e4f565b9050602081019050919050565b82818337600083830152505050565b60006121a061219b8461214d565b612132565b9050828152602081018484840111156121bc576121bb6120cd565b5b6121c784828561217e565b509392505050565b600082601f8301126121e4576121e36120c8565b5b81356121f484826020860161218d565b91505092915050565b6000806000806080858703121561221757612216611d44565b5b600061222587828801611f87565b945050602061223687828801611f87565b935050604061224787828801611ed2565b925050606085013567ffffffffffffffff81111561226857612267611d49565b5b612274878288016121cf565b91505092959194509250565b600067ffffffffffffffff82111561229b5761229a6120d2565b5b6122a482611e4f565b9050602081019050919050565b60006122c46122bf84612280565b612132565b9050828152602081018484840111156122e0576122df6120cd565b5b6122eb84828561217e565b509392505050565b600082601f830112612308576123076120c8565b5b81356123188482602086016122b1565b91505092915050565b6000806040838503121561233857612337611d44565b5b600061234685828601611f87565b925050602083013567ffffffffffffffff81111561236757612366611d49565b5b612373858286016122f3565b9150509250929050565b6000806040838503121561239457612393611d44565b5b60006123a285828601611f87565b92505060206123b385828601611f87565b9150509250929050565b7f4e487b7100000000000000000000000000000000000000000000000000000000600052602260045260246000fd5b6000600282049050600182168061240457607f821691505b602082108103612417576124166123bd565b5b50919050565b7f4552433732313a20617070726f76616c20746f2063757272656e74206f776e6560008201527f7200000000000000000000000000000000000000000000000000000000000000602082015250565b6000612479602183611e14565b91506124848261241d565b604082019050919050565b600060208201905081810360008301526124a88161246c565b9050919050565b7f4552433732313a20617070726f76652063616c6c6572206973206e6f7420746f60008201527f6b656e206f776e6572206f7220617070726f76656420666f7220616c6c000000602082015250565b600061250b603d83611e14565b9150612516826124af565b604082019050919050565b6000602082019050818103600083015261253a816124fe565b9050919050565b7f4552433732313a2063616c6c6572206973206e6f7420746f6b656e206f776e6560008201527f72206f7220617070726f76656400000000000000000000000000000000000000602082015250565b600061259d602d83611e14565b91506125a882612541565b604082019050919050565b600060208201905081810360008301526125cc81612590565b9050919050565b7f4552433732313a20696e76616c696420746f6b656e2049440000000000000000600082015250565b6000612609601883611e14565b9150612614826125d3565b602082019050919050565b60006020820190508181036000830152612638816125fc565b9050919050565b7f4552433732313a2061646472657373207a65726f206973206e6f74206120766160008201527f6c6964206f776e65720000000000000000000000000000000000000000000000602082015250565b600061269b602983611e14565b91506126a68261263f565b604082019050919050565b600060208201905081810360008301526126ca8161268e565b9050919050565b7f4f776e61626c653a206e6577206f776e657220697320746865207a65726f206160008201527f6464726573730000000000000000000000000000000000000000000000000000602082015250565b600061272d602683611e14565b9150612738826126d1565b604082019050919050565b6000602082019050818103600083015261275c81612720565b9050919050565b7f4552433732313a207472616e736665722066726f6d20696e636f72726563742060008201527f6f776e6572000000000000000000000000000000000000000000000000000000602082015250565b60006127bf602583611e14565b91506127ca82612763565b604082019050919050565b600060208201905081810360008301526127ee816127b2565b9050919050565b7f4552433732313a207472616e7366657220746f20746865207a65726f2061646460008201527f7265737300000000000000000000000000000000000000000000000000000000602082015250565b6000612851602483611e14565b915061285c826127f5565b604082019050919050565b6000602082019050818103600083015261288081612844565b9050919050565b7f4f776e61626c653a2063616c6c6572206973206e6f7420746865206f776e6572600082015250565b60006128bd602083611e14565b91506128c882612887565b602082019050919050565b600060208201905081810360008301526128ec816128b0565b9050919050565b7f4552433732313a20617070726f766520746f2063616c6c657200000000000000600082015250565b6000612929601983611e14565b9150612934826128f3565b602082019050919050565b600060208201905081810360008301526129588161291c565b9050919050565b7f4552433732313a207472616e7366657220746f206e6f6e20455243373231526560008201527f63656976657220696d706c656d656e7465720000000000000000000000000000602082015250565b60006129bb603283611e14565b91506129c68261295f565b604082019050919050565b600060208201905081810360008301526129ea816129ae565b9050919050565b600081905092915050565b6000612a0782611e09565b612a1181856129f1565b9350612a21818560208601611e25565b80840191505092915050565b6000612a3982856129fc565b9150612a4582846129fc565b91508190509392505050565b7f45524337323155524953746f726167653a2055524920736574206f66206e6f6e60008201527f6578697374656e7420746f6b656e000000000000000000000000000000000000602082015250565b6000612aad602e83611e14565b9150612ab882612a51565b604082019050919050565b60006020820190508181036000830152612adc81612aa0565b9050919050565b60008190508160005260206000209050919050565b60006020601f8301049050919050565b600082821b905092915050565b600060088302612b457fffffffffffffffffffffffffffffffffffffffffffffffffffffffffffffffff82612b08565b612b4f8683612b08565b95508019841693508086168417925050509392505050565b6000819050919050565b6000612b8c612b87612b8284611d06565b612b67565b611d06565b9050919050565b6000819050919050565b612ba683612b71565b612bba612bb282612b93565b848454612b15565b825550505050565b600090565b612bcf612bc2565b612bda818484612b9d565b505050565b5b81811015612bfe57612bf3600082612bc7565b600181019050612be0565b5050565b601f821115612c4357612c1481612ae3565b612c1d84612af8565b81016020851015612c2c578190505b612c40612c3885612af8565b830182612bdf565b50505b505050565b600082821c905092915050565b6000612c6660001984600802612c48565b1980831691505092915050565b6000612c7f8383612c55565b9150826002028217905092915050565b612c9882611e09565b67ffffffffffffffff811115612cb157612cb06120d2565b5b612cbb82546123ec565b612cc6828285612c02565b600060209050601f831160018114612cf95760008415612ce7578287015190505b612cf18582612c73565b865550612d59565b601f198416612d0786612ae3565b60005b82811015612d2f57848901518255600182019150602085019450602081019050612d0a565b86831015612d4c5784890151612d48601f891682612c55565b8355505b6001600288020188555050505b505050505050565b7f4e487b7100000000000000000000000000000000000000000000000000000000600052601160045260246000fd5b6000612d9b82611d06565b9150612da683611d06565b9250828203905081811115612dbe57612dbd612d61565b5b92915050565b6000612dcf82611d06565b9150612dda83611d06565b9250828201905080821115612df257612df1612d61565b5b92915050565b600081519050919050565b600082825260208201905092915050565b6000612e1f82612df8565b612e298185612e03565b9350612e39818560208601611e25565b612e4281611e4f565b840191505092915050565b6000608082019050612e626000830187611f46565b612e6f6020830186611f46565b612e7c6040830185611d10565b8181036060830152612e8e8184612e14565b905095945050505050565b600081519050612ea881611d7a565b92915050565b600060208284031215612ec457612ec3611d44565b5b6000612ed284828501612e99565b91505092915050565b7f4e487b7100000000000000000000000000000000000000000000000000000000600052601260045260246000fd5b7f4552433732313a206d696e7420746f20746865207a65726f2061646472657373600082015250565b6000612f40602083611e14565b9150612f4b82612f0a565b602082019050919050565b60006020820190508181036000830152612f6f81612f33565b9050919050565b7f4552433732313a20746f6b656e20616c7265616479206d696e74656400000000600082015250565b6000612fac601c83611e14565b9150612fb782612f76565b602082019050919050565b60006020820190508181036000830152612fdb81612f9f565b905091905056fea2646970667358221220d9a9991feca042ed303bf13d6a14db1ed7a4631d5dc6e18b8ec28375f5ced4f964736f6c63430008110033",
  "linkReferences": {},
  "deployedLinkReferences": {}
}