{
  "_format": "hh-sol-artifact-1",
  "contractName": "LenderBorrower",
  "sourceName": "contracts/LendAndBorrow.sol",
  "abi": [
    {
      "inputs": [],
      "stateMutability": "nonpayable",
      "type": "constructor"
    },
    {
      "anonymous": false,
      "inputs": [
        {
          "indexed": true,
          "internalType": "address",
          "name": "previousOwner",
          "type": "address"
        },
        {
          "indexed": true,
          "internalType": "address",
          "name": "newOwner",
          "type": "address"
        }
      ],
      "name": "OwnershipTransferred",
      "type": "event"
    },
    {
      "inputs": [],
      "name": "_proposalId",
      "outputs": [
        {
          "internalType": "uint256",
          "name": "_value",
          "type": "uint256"
        }
      ],
      "stateMutability": "view",
      "type": "function"
    },
    {
      "inputs": [
        {
          "internalType": "uint256",
          "name": "_requiredProposalId",
          "type": "uint256"
        }
      ],
      "name": "claimNft",
      "outputs": [],
      "stateMutability": "nonpayable",
      "type": "function"
    },
    {
      "inputs": [
        {
          "internalType": "uint256",
          "name": "_requiredProposalId",
          "type": "uint256"
        }
      ],
      "name": "lendToProposal",
      "outputs": [],
      "stateMutability": "payable",
      "type": "function"
    },
    {
      "inputs": [
        {
          "internalType": "address",
          "name": "",
          "type": "address"
        },
        {
          "internalType": "address",
          "name": "",
          "type": "address"
        },
        {
          "internalType": "uint256",
          "name": "",
          "type": "uint256"
        },
        {
          "internalType": "bytes",
          "name": "",
          "type": "bytes"
        }
      ],
      "name": "onERC721Received",
      "outputs": [
        {
          "internalType": "bytes4",
          "name": "",
          "type": "bytes4"
        }
      ],
      "stateMutability": "nonpayable",
      "type": "function"
    },
    {
      "inputs": [],
      "name": "owner",
      "outputs": [
        {
          "internalType": "address",
          "name": "",
          "type": "address"
        }
      ],
      "stateMutability": "view",
      "type": "function"
    },
    {
      "inputs": [],
      "name": "renounceOwnership",
      "outputs": [],
      "stateMutability": "nonpayable",
      "type": "function"
    },
    {
      "inputs": [
        {
          "internalType": "uint256",
          "name": "_requiredProposalId",
          "type": "uint256"
        }
      ],
      "name": "repayAll",
      "outputs": [],
      "stateMutability": "payable",
      "type": "function"
    },
    {
      "inputs": [
        {
          "internalType": "uint256",
          "name": "amount",
          "type": "uint256"
        },
        {
          "internalType": "uint256",
          "name": "interestRate",
          "type": "uint256"
        },
        {
          "internalType": "uint256",
          "name": "repayMentPeriod",
          "type": "uint256"
        },
        {
          "internalType": "address",
          "name": "nft",
          "type": "address"
        },
        {
          "internalType": "uint256",
          "name": "tokenId",
          "type": "uint256"
        }
      ],
      "name": "startBorrowProposal",
      "outputs": [
        {
          "internalType": "uint256",
          "name": "proposalId",
          "type": "uint256"
        }
      ],
      "stateMutability": "nonpayable",
      "type": "function"
    },
    {
      "inputs": [
        {
          "internalType": "address",
          "name": "newOwner",
          "type": "address"
        }
      ],
      "name": "transferOwnership",
      "outputs": [],
      "stateMutability": "nonpayable",
      "type": "function"
    },
    {
      "inputs": [
        {
          "internalType": "uint256",
          "name": "_requiredProposalId",
          "type": "uint256"
        }
      ],
      "name": "withDrawProposal",
      "outputs": [],
      "stateMutability": "nonpayable",
      "type": "function"
    }
  ],
  "bytecode": "0x608060405234801561001057600080fd5b5061002d61002261003260201b60201c565b61003a60201b60201c565b6100fe565b600033905090565b60008060009054906101000a900473ffffffffffffffffffffffffffffffffffffffff169050816000806101000a81548173ffffffffffffffffffffffffffffffffffffffff021916908373ffffffffffffffffffffffffffffffffffffffff1602179055508173ffffffffffffffffffffffffffffffffffffffff168173ffffffffffffffffffffffffffffffffffffffff167f8be0079c531659141344cd1fd0a4f28419497f9722a3daafe3b4186f6b6457e060405160405180910390a35050565b6113718061010d6000396000f3fe6080604052600436106100915760003560e01c80638da5cb5b116100595780638da5cb5b1461015a5780639cf7095b14610185578063b1c92b18146101c2578063e54ba976146101de578063f2fde38b1461020757610091565b8063150b7a02146100965780632453abda146100d35780632ec09d39146100fe5780633221be5414610127578063715018a614610143575b600080fd5b3480156100a257600080fd5b506100bd60048036038101906100b89190610e64565b610230565b6040516100ca9190610f22565b60405180910390f35b3480156100df57600080fd5b506100e8610244565b6040516100f59190610f4c565b60405180910390f35b34801561010a57600080fd5b5061012560048036038101906101209190610f67565b610250565b005b610141600480360381019061013c9190610f67565b61034c565b005b34801561014f57600080fd5b50610158610432565b005b34801561016657600080fd5b5061016f610446565b60405161017c9190610fa3565b60405180910390f35b34801561019157600080fd5b506101ac60048036038101906101a79190610fbe565b61046f565b6040516101b99190610f4c565b60405180910390f35b6101dc60048036038101906101d79190610f67565b610862565b005b3480156101ea57600080fd5b5061020560048036038101906102009190610f67565b610952565b005b34801561021357600080fd5b5061022e60048036038101906102299190611039565b610a85565b005b600063150b7a0260e01b9050949350505050565b60018060000154905081565b6002600082815260200190815260200160002060070160009054906101000a900473ffffffffffffffffffffffffffffffffffffffff1673ffffffffffffffffffffffffffffffffffffffff166342842e0e303360026000868152602001908152602001600020600801546040518463ffffffff1660e01b81526004016102d993929190611066565b600060405180830381600087803b1580156102f357600080fd5b505af1158015610307573d6000803e3d6000fd5b50505050600280600083815260200190815260200160002060050160006101000a81548160ff021916908360048111156103445761034361109d565b5b021790555050565b60006002600083815260200190815260200160002060050160019054906101000a900473ffffffffffffffffffffffffffffffffffffffff1673ffffffffffffffffffffffffffffffffffffffff16346040516103a8906110fd565b60006040518083038185875af1925050503d80600081146103e5576040519150601f19603f3d011682016040523d82523d6000602084013e6103ea565b606091505b505090508061042e576040517f08c379a00000000000000000000000000000000000000000000000000000000081526004016104259061116f565b60405180910390fd5b5050565b61043a610b08565b6104446000610b86565b565b60008060009054906101000a900473ffffffffffffffffffffffffffffffffffffffff16905090565b6000808390503373ffffffffffffffffffffffffffffffffffffffff168173ffffffffffffffffffffffffffffffffffffffff16636352211e856040518263ffffffff1660e01b81526004016104c59190610f4c565b602060405180830381865afa1580156104e2573d6000803e3d6000fd5b505050506040513d601f19601f8201168201806040525081019061050691906111a4565b73ffffffffffffffffffffffffffffffffffffffff161461055c576040517f08c379a00000000000000000000000000000000000000000000000000000000081526004016105539061121d565b60405180910390fd5b6105666001610c4a565b6040518061014001604052803373ffffffffffffffffffffffffffffffffffffffff1681526020018881526020018781526020018681526020016105aa6001610c60565b8152602001600060048111156105c3576105c261109d565b5b8152602001600073ffffffffffffffffffffffffffffffffffffffff168152602001600081526020018573ffffffffffffffffffffffffffffffffffffffff168152602001848152506002600061061a6001610c60565b815260200190815260200160002060008201518160000160006101000a81548173ffffffffffffffffffffffffffffffffffffffff021916908373ffffffffffffffffffffffffffffffffffffffff1602179055506020820151816001015560408201518160020155606082015181600301556080820151816004015560a08201518160050160006101000a81548160ff021916908360048111156106c2576106c161109d565b5b021790555060c08201518160050160016101000a81548173ffffffffffffffffffffffffffffffffffffffff021916908373ffffffffffffffffffffffffffffffffffffffff16021790555060e082015181600601556101008201518160070160006101000a81548173ffffffffffffffffffffffffffffffffffffffff021916908373ffffffffffffffffffffffffffffffffffffffff16021790555061012082015181600801559050508073ffffffffffffffffffffffffffffffffffffffff166342842e0e3330866040518463ffffffff1660e01b81526004016107ab93929190611066565b600060405180830381600087803b1580156107c557600080fd5b505af11580156107d9573d6000803e3d6000fd5b50505050600360003373ffffffffffffffffffffffffffffffffffffffff1673ffffffffffffffffffffffffffffffffffffffff1681526020019081526020016000206108266001610c60565b90806001815401808255809150506001900390600052602060002001600090919091909150556108566001610c60565b91505095945050505050565b426002600083815260200190815260200160002060060181905550336002600083815260200190815260200160002060050160016101000a81548173ffffffffffffffffffffffffffffffffffffffff021916908373ffffffffffffffffffffffffffffffffffffffff1602179055506002600082815260200190815260200160002060000160009054906101000a900473ffffffffffffffffffffffffffffffffffffffff1673ffffffffffffffffffffffffffffffffffffffff166108fc349081150290604051600060405180830381858888f1935050505015801561094e573d6000803e3d6000fd5b5050565b60046002600083815260200190815260200160002060050160006101000a81548160ff0219169083600481111561098c5761098b61109d565b5b02179055506002600082815260200190815260200160002060070160009054906101000a900473ffffffffffffffffffffffffffffffffffffffff1673ffffffffffffffffffffffffffffffffffffffff166342842e0e306002600085815260200190815260200160002060050160019054906101000a900473ffffffffffffffffffffffffffffffffffffffff1660026000868152602001908152602001600020600801546040518463ffffffff1660e01b8152600401610a5093929190611066565b600060405180830381600087803b158015610a6a57600080fd5b505af1158015610a7e573d6000803e3d6000fd5b5050505050565b610a8d610b08565b600073ffffffffffffffffffffffffffffffffffffffff168173ffffffffffffffffffffffffffffffffffffffff1603610afc576040517f08c379a0000000000000000000000000000000000000000000000000000000008152600401610af3906112af565b60405180910390fd5b610b0581610b86565b50565b610b10610c6e565b73ffffffffffffffffffffffffffffffffffffffff16610b2e610446565b73ffffffffffffffffffffffffffffffffffffffff1614610b84576040517f08c379a0000000000000000000000000000000000000000000000000000000008152600401610b7b9061131b565b60405180910390fd5b565b60008060009054906101000a900473ffffffffffffffffffffffffffffffffffffffff169050816000806101000a81548173ffffffffffffffffffffffffffffffffffffffff021916908373ffffffffffffffffffffffffffffffffffffffff1602179055508173ffffffffffffffffffffffffffffffffffffffff168173ffffffffffffffffffffffffffffffffffffffff167f8be0079c531659141344cd1fd0a4f28419497f9722a3daafe3b4186f6b6457e060405160405180910390a35050565b6001816000016000828254019250508190555050565b600081600001549050919050565b600033905090565b6000604051905090565b600080fd5b600080fd5b600073ffffffffffffffffffffffffffffffffffffffff82169050919050565b6000610cb582610c8a565b9050919050565b610cc581610caa565b8114610cd057600080fd5b50565b600081359050610ce281610cbc565b92915050565b6000819050919050565b610cfb81610ce8565b8114610d0657600080fd5b50565b600081359050610d1881610cf2565b92915050565b600080fd5b600080fd5b6000601f19601f8301169050919050565b7f4e487b7100000000000000000000000000000000000000000000000000000000600052604160045260246000fd5b610d7182610d28565b810181811067ffffffffffffffff82111715610d9057610d8f610d39565b5b80604052505050565b6000610da3610c76565b9050610daf8282610d68565b919050565b600067ffffffffffffffff821115610dcf57610dce610d39565b5b610dd882610d28565b9050602081019050919050565b82818337600083830152505050565b6000610e07610e0284610db4565b610d99565b905082815260208101848484011115610e2357610e22610d23565b5b610e2e848285610de5565b509392505050565b600082601f830112610e4b57610e4a610d1e565b5b8135610e5b848260208601610df4565b91505092915050565b60008060008060808587031215610e7e57610e7d610c80565b5b6000610e8c87828801610cd3565b9450506020610e9d87828801610cd3565b9350506040610eae87828801610d09565b925050606085013567ffffffffffffffff811115610ecf57610ece610c85565b5b610edb87828801610e36565b91505092959194509250565b60007fffffffff0000000000000000000000000000000000000000000000000000000082169050919050565b610f1c81610ee7565b82525050565b6000602082019050610f376000830184610f13565b92915050565b610f4681610ce8565b82525050565b6000602082019050610f616000830184610f3d565b92915050565b600060208284031215610f7d57610f7c610c80565b5b6000610f8b84828501610d09565b91505092915050565b610f9d81610caa565b82525050565b6000602082019050610fb86000830184610f94565b92915050565b600080600080600060a08688031215610fda57610fd9610c80565b5b6000610fe888828901610d09565b9550506020610ff988828901610d09565b945050604061100a88828901610d09565b935050606061101b88828901610cd3565b925050608061102c88828901610d09565b9150509295509295909350565b60006020828403121561104f5761104e610c80565b5b600061105d84828501610cd3565b91505092915050565b600060608201905061107b6000830186610f94565b6110886020830185610f94565b6110956040830184610f3d565b949350505050565b7f4e487b7100000000000000000000000000000000000000000000000000000000600052602160045260246000fd5b600081905092915050565b50565b60006110e76000836110cc565b91506110f2826110d7565b600082019050919050565b6000611108826110da565b9150819050919050565b600082825260208201905092915050565b7f4661696c656420746f2073656e64204574686572000000000000000000000000600082015250565b6000611159601483611112565b915061116482611123565b602082019050919050565b600060208201905081810360008301526111888161114c565b9050919050565b60008151905061119e81610cbc565b92915050565b6000602082840312156111ba576111b9610c80565b5b60006111c88482850161118f565b91505092915050565b7f53656e646572206973206e6f7420746865206f776e6572000000000000000000600082015250565b6000611207601783611112565b9150611212826111d1565b602082019050919050565b60006020820190508181036000830152611236816111fa565b9050919050565b7f4f776e61626c653a206e6577206f776e657220697320746865207a65726f206160008201527f6464726573730000000000000000000000000000000000000000000000000000602082015250565b6000611299602683611112565b91506112a48261123d565b604082019050919050565b600060208201905081810360008301526112c88161128c565b9050919050565b7f4f776e61626c653a2063616c6c6572206973206e6f7420746865206f776e6572600082015250565b6000611305602083611112565b9150611310826112cf565b602082019050919050565b60006020820190508181036000830152611334816112f8565b905091905056fea2646970667358221220416aa5dec3b7f826cb1a7833a07b462e4c2588a1d0c7ff383180fef1e9282a3064736f6c63430008110033",
  "linkReferences": {},
  "deployedLinkReferences": {}
}