{
  "_format": "hh-sol-artifact-1",
  "contractName": "ZD",
  "sourceName": "contracts/ZD.sol",
  "abi": [
    {
      "inputs": [],
      "stateMutability": "nonpayable",
      "type": "constructor"
    },
    {
      "anonymous": false,
      "inputs": [
        {
          "indexed": true,
          "internalType": "address",
          "name": "owner",
          "type": "address"
        },
        {
          "indexed": true,
          "internalType": "address",
          "name": "approved",
          "type": "address"
        },
        {
          "indexed": true,
          "internalType": "uint256",
          "name": "tokenId",
          "type": "uint256"
        }
      ],
      "name": "Approval",
      "type": "event"
    },
    {
      "anonymous": false,
      "inputs": [
        {
          "indexed": true,
          "internalType": "address",
          "name": "owner",
          "type": "address"
        },
        {
          "indexed": true,
          "internalType": "address",
          "name": "operator",
          "type": "address"
        },
        {
          "indexed": false,
          "internalType": "bool",
          "name": "approved",
          "type": "bool"
        }
      ],
      "name": "ApprovalForAll",
      "type": "event"
    },
    {
      "anonymous": false,
      "inputs": [
        {
          "indexed": true,
          "internalType": "address",
          "name": "previousOwner",
          "type": "address"
        },
        {
          "indexed": true,
          "internalType": "address",
          "name": "newOwner",
          "type": "address"
        }
      ],
      "name": "OwnershipTransferred",
      "type": "event"
    },
    {
      "anonymous": false,
      "inputs": [
        {
          "indexed": true,
          "internalType": "address",
          "name": "from",
          "type": "address"
        },
        {
          "indexed": true,
          "internalType": "address",
          "name": "to",
          "type": "address"
        },
        {
          "indexed": true,
          "internalType": "uint256",
          "name": "tokenId",
          "type": "uint256"
        }
      ],
      "name": "Transfer",
      "type": "event"
    },
    {
      "inputs": [
        {
          "internalType": "address",
          "name": "to",
          "type": "address"
        },
        {
          "internalType": "uint256",
          "name": "tokenId",
          "type": "uint256"
        }
      ],
      "name": "approve",
      "outputs": [],
      "stateMutability": "nonpayable",
      "type": "function"
    },
    {
      "inputs": [
        {
          "internalType": "address",
          "name": "owner",
          "type": "address"
        }
      ],
      "name": "balanceOf",
      "outputs": [
        {
          "internalType": "uint256",
          "name": "",
          "type": "uint256"
        }
      ],
      "stateMutability": "view",
      "type": "function"
    },
    {
      "inputs": [
        {
          "internalType": "uint256",
          "name": "tokenId",
          "type": "uint256"
        }
      ],
      "name": "getApproved",
      "outputs": [
        {
          "internalType": "address",
          "name": "",
          "type": "address"
        }
      ],
      "stateMutability": "view",
      "type": "function"
    },
    {
      "inputs": [],
      "name": "getCurrentTokenId",
      "outputs": [
        {
          "internalType": "uint256",
          "name": "tokenIdCurrent",
          "type": "uint256"
        }
      ],
      "stateMutability": "view",
      "type": "function"
    },
    {
      "inputs": [
        {
          "internalType": "address",
          "name": "owner",
          "type": "address"
        },
        {
          "internalType": "address",
          "name": "operator",
          "type": "address"
        }
      ],
      "name": "isApprovedForAll",
      "outputs": [
        {
          "internalType": "bool",
          "name": "",
          "type": "bool"
        }
      ],
      "stateMutability": "view",
      "type": "function"
    },
    {
      "inputs": [],
      "name": "name",
      "outputs": [
        {
          "internalType": "string",
          "name": "",
          "type": "string"
        }
      ],
      "stateMutability": "view",
      "type": "function"
    },
    {
      "inputs": [],
      "name": "owner",
      "outputs": [
        {
          "internalType": "address",
          "name": "",
          "type": "address"
        }
      ],
      "stateMutability": "view",
      "type": "function"
    },
    {
      "inputs": [
        {
          "internalType": "uint256",
          "name": "tokenId",
          "type": "uint256"
        }
      ],
      "name": "ownerOf",
      "outputs": [
        {
          "internalType": "address",
          "name": "",
          "type": "address"
        }
      ],
      "stateMutability": "view",
      "type": "function"
    },
    {
      "inputs": [],
      "name": "renounceOwnership",
      "outputs": [],
      "stateMutability": "nonpayable",
      "type": "function"
    },
    {
      "inputs": [
        {
          "internalType": "address",
          "name": "to",
          "type": "address"
        },
        {
          "internalType": "string",
          "name": "uri",
          "type": "string"
        }
      ],
      "name": "safeMint",
      "outputs": [
        {
          "internalType": "uint256",
          "name": "tokenIdMinted",
          "type": "uint256"
        }
      ],
      "stateMutability": "nonpayable",
      "type": "function"
    },
    {
      "inputs": [
        {
          "internalType": "address",
          "name": "from",
          "type": "address"
        },
        {
          "internalType": "address",
          "name": "to",
          "type": "address"
        },
        {
          "internalType": "uint256",
          "name": "tokenId",
          "type": "uint256"
        }
      ],
      "name": "safeTransferFrom",
      "outputs": [],
      "stateMutability": "nonpayable",
      "type": "function"
    },
    {
      "inputs": [
        {
          "internalType": "address",
          "name": "from",
          "type": "address"
        },
        {
          "internalType": "address",
          "name": "to",
          "type": "address"
        },
        {
          "internalType": "uint256",
          "name": "tokenId",
          "type": "uint256"
        },
        {
          "internalType": "bytes",
          "name": "data",
          "type": "bytes"
        }
      ],
      "name": "safeTransferFrom",
      "outputs": [],
      "stateMutability": "nonpayable",
      "type": "function"
    },
    {
      "inputs": [
        {
          "internalType": "address",
          "name": "operator",
          "type": "address"
        },
        {
          "internalType": "bool",
          "name": "approved",
          "type": "bool"
        }
      ],
      "name": "setApprovalForAll",
      "outputs": [],
      "stateMutability": "nonpayable",
      "type": "function"
    },
    {
      "inputs": [
        {
          "internalType": "bytes4",
          "name": "interfaceId",
          "type": "bytes4"
        }
      ],
      "name": "supportsInterface",
      "outputs": [
        {
          "internalType": "bool",
          "name": "",
          "type": "bool"
        }
      ],
      "stateMutability": "view",
      "type": "function"
    },
    {
      "inputs": [],
      "name": "symbol",
      "outputs": [
        {
          "internalType": "string",
          "name": "",
          "type": "string"
        }
      ],
      "stateMutability": "view",
      "type": "function"
    },
    {
      "inputs": [
        {
          "internalType": "uint256",
          "name": "tokenId",
          "type": "uint256"
        }
      ],
      "name": "tokenURI",
      "outputs": [
        {
          "internalType": "string",
          "name": "",
          "type": "string"
        }
      ],
      "stateMutability": "view",
      "type": "function"
    },
    {
      "inputs": [
        {
          "internalType": "address",
          "name": "from",
          "type": "address"
        },
        {
          "internalType": "address",
          "name": "to",
          "type": "address"
        },
        {
          "internalType": "uint256",
          "name": "tokenId",
          "type": "uint256"
        }
      ],
      "name": "transferFrom",
      "outputs": [],
      "stateMutability": "nonpayable",
      "type": "function"
    },
    {
      "inputs": [
        {
          "internalType": "address",
          "name": "newOwner",
          "type": "address"
        }
      ],
      "name": "transferOwnership",
      "outputs": [],
      "stateMutability": "nonpayable",
      "type": "function"
    }
  ],
  "bytecode": "0x60806040523480156200001157600080fd5b506040518060400160405280600281526020017f5a440000000000000000000000000000000000000000000000000000000000008152506040518060400160405280600281526020017f5a4400000000000000000000000000000000000000000000000000000000000081525081600090816200008f919062000412565b508060019081620000a1919062000412565b505050620000c4620000b8620000ca60201b60201c565b620000d260201b60201c565b620004f9565b600033905090565b6000600760009054906101000a900473ffffffffffffffffffffffffffffffffffffffff16905081600760006101000a81548173ffffffffffffffffffffffffffffffffffffffff021916908373ffffffffffffffffffffffffffffffffffffffff1602179055508173ffffffffffffffffffffffffffffffffffffffff168173ffffffffffffffffffffffffffffffffffffffff167f8be0079c531659141344cd1fd0a4f28419497f9722a3daafe3b4186f6b6457e060405160405180910390a35050565b600081519050919050565b7f4e487b7100000000000000000000000000000000000000000000000000000000600052604160045260246000fd5b7f4e487b7100000000000000000000000000000000000000000000000000000000600052602260045260246000fd5b600060028204905060018216806200021a57607f821691505b60208210810362000230576200022f620001d2565b5b50919050565b60008190508160005260206000209050919050565b60006020601f8301049050919050565b600082821b905092915050565b6000600883026200029a7fffffffffffffffffffffffffffffffffffffffffffffffffffffffffffffffff826200025b565b620002a686836200025b565b95508019841693508086168417925050509392505050565b6000819050919050565b6000819050919050565b6000620002f3620002ed620002e784620002be565b620002c8565b620002be565b9050919050565b6000819050919050565b6200030f83620002d2565b620003276200031e82620002fa565b84845462000268565b825550505050565b600090565b6200033e6200032f565b6200034b81848462000304565b505050565b5b8181101562000373576200036760008262000334565b60018101905062000351565b5050565b601f821115620003c2576200038c8162000236565b62000397846200024b565b81016020851015620003a7578190505b620003bf620003b6856200024b565b83018262000350565b50505b505050565b600082821c905092915050565b6000620003e760001984600802620003c7565b1980831691505092915050565b6000620004028383620003d4565b9150826002028217905092915050565b6200041d8262000198565b67ffffffffffffffff811115620004395762000438620001a3565b5b62000445825462000201565b6200045282828562000377565b600060209050601f8311600181146200048a576000841562000475578287015190505b620004818582620003f4565b865550620004f1565b601f1984166200049a8662000236565b60005b82811015620004c4578489015182556001820191506020850194506020810190506200049d565b86831015620004e45784890151620004e0601f891682620003d4565b8355505b6001600288020188555050505b505050505050565b61303d80620005096000396000f3fe608060405234801561001057600080fd5b50600436106101165760003560e01c8063715018a6116100a2578063b88d4fde11610071578063b88d4fde146102cd578063c87b56dd146102e9578063d204c45e14610319578063e985e9c514610349578063f2fde38b1461037957610116565b8063715018a61461026b5780638da5cb5b1461027557806395d89b4114610293578063a22cb465146102b157610116565b806323b872dd116100e957806323b872dd146101b557806342842e0e146101d157806356189236146101ed5780636352211e1461020b57806370a082311461023b57610116565b806301ffc9a71461011b57806306fdde031461014b578063081812fc14610169578063095ea7b314610199575b600080fd5b61013560048036038101906101309190611d97565b610395565b6040516101429190611ddf565b60405180910390f35b610153610477565b6040516101609190611e8a565b60405180910390f35b610183600480360381019061017e9190611ee2565b610509565b6040516101909190611f50565b60405180910390f35b6101b360048036038101906101ae9190611f97565b61054f565b005b6101cf60048036038101906101ca9190611fd7565b610666565b005b6101eb60048036038101906101e69190611fd7565b6106c6565b005b6101f56106e6565b6040516102029190612039565b60405180910390f35b61022560048036038101906102209190611ee2565b6106f7565b6040516102329190611f50565b60405180910390f35b61025560048036038101906102509190612054565b61077d565b6040516102629190612039565b60405180910390f35b610273610834565b005b61027d610848565b60405161028a9190611f50565b60405180910390f35b61029b610872565b6040516102a89190611e8a565b60405180910390f35b6102cb60048036038101906102c691906120ad565b610904565b005b6102e760048036038101906102e29190612222565b61091a565b005b61030360048036038101906102fe9190611ee2565b61097c565b6040516103109190611e8a565b60405180910390f35b610333600480360381019061032e9190612346565b61098e565b6040516103409190612039565b60405180910390f35b610363600480360381019061035e91906123a2565b6109d7565b6040516103709190611ddf565b60405180910390f35b610393600480360381019061038e9190612054565b610a6b565b005b60007f80ac58cd000000000000000000000000000000000000000000000000000000007bffffffffffffffffffffffffffffffffffffffffffffffffffffffff1916827bffffffffffffffffffffffffffffffffffffffffffffffffffffffff1916148061046057507f5b5e139f000000000000000000000000000000000000000000000000000000007bffffffffffffffffffffffffffffffffffffffffffffffffffffffff1916827bffffffffffffffffffffffffffffffffffffffffffffffffffffffff1916145b80610470575061046f82610aee565b5b9050919050565b60606000805461048690612411565b80601f01602080910402602001604051908101604052809291908181526020018280546104b290612411565b80156104ff5780601f106104d4576101008083540402835291602001916104ff565b820191906000526020600020905b8154815290600101906020018083116104e257829003601f168201915b5050505050905090565b600061051482610b58565b6004600083815260200190815260200160002060009054906101000a900473ffffffffffffffffffffffffffffffffffffffff169050919050565b600061055a826106f7565b90508073ffffffffffffffffffffffffffffffffffffffff168373ffffffffffffffffffffffffffffffffffffffff16036105ca576040517f08c379a00000000000000000000000000000000000000000000000000000000081526004016105c1906124b4565b60405180910390fd5b8073ffffffffffffffffffffffffffffffffffffffff166105e9610ba3565b73ffffffffffffffffffffffffffffffffffffffff161480610618575061061781610612610ba3565b6109d7565b5b610657576040517f08c379a000000000000000000000000000000000000000000000000000000000815260040161064e90612546565b60405180910390fd5b6106618383610bab565b505050565b610677610671610ba3565b82610c64565b6106b6576040517f08c379a00000000000000000000000000000000000000000000000000000000081526004016106ad906125d8565b60405180910390fd5b6106c1838383610cf9565b505050565b6106e18383836040518060200160405280600081525061091a565b505050565b60006106f26008610ff2565b905090565b60008061070383611000565b9050600073ffffffffffffffffffffffffffffffffffffffff168173ffffffffffffffffffffffffffffffffffffffff1603610774576040517f08c379a000000000000000000000000000000000000000000000000000000000815260040161076b90612644565b60405180910390fd5b80915050919050565b60008073ffffffffffffffffffffffffffffffffffffffff168273ffffffffffffffffffffffffffffffffffffffff16036107ed576040517f08c379a00000000000000000000000000000000000000000000000000000000081526004016107e4906126d6565b60405180910390fd5b600360008373ffffffffffffffffffffffffffffffffffffffff1673ffffffffffffffffffffffffffffffffffffffff168152602001908152602001600020549050919050565b61083c61103d565b61084660006110bb565b565b6000600760009054906101000a900473ffffffffffffffffffffffffffffffffffffffff16905090565b60606001805461088190612411565b80601f01602080910402602001604051908101604052809291908181526020018280546108ad90612411565b80156108fa5780601f106108cf576101008083540402835291602001916108fa565b820191906000526020600020905b8154815290600101906020018083116108dd57829003601f168201915b5050505050905090565b61091661090f610ba3565b8383611181565b5050565b61092b610925610ba3565b83610c64565b61096a576040517f08c379a0000000000000000000000000000000000000000000000000000000008152600401610961906125d8565b60405180910390fd5b610976848484846112ed565b50505050565b606061098782611349565b9050919050565b600061099861103d565b60006109a46008610ff2565b90506109b0600861145b565b6109ba8482611471565b6109c4818461148f565b6109ce6008610ff2565b91505092915050565b6000600560008473ffffffffffffffffffffffffffffffffffffffff1673ffffffffffffffffffffffffffffffffffffffff16815260200190815260200160002060008373ffffffffffffffffffffffffffffffffffffffff1673ffffffffffffffffffffffffffffffffffffffff16815260200190815260200160002060009054906101000a900460ff16905092915050565b610a7361103d565b600073ffffffffffffffffffffffffffffffffffffffff168173ffffffffffffffffffffffffffffffffffffffff1603610ae2576040517f08c379a0000000000000000000000000000000000000000000000000000000008152600401610ad990612768565b60405180910390fd5b610aeb816110bb565b50565b60007f01ffc9a7000000000000000000000000000000000000000000000000000000007bffffffffffffffffffffffffffffffffffffffffffffffffffffffff1916827bffffffffffffffffffffffffffffffffffffffffffffffffffffffff1916149050919050565b610b61816114fc565b610ba0576040517f08c379a0000000000000000000000000000000000000000000000000000000008152600401610b9790612644565b60405180910390fd5b50565b600033905090565b816004600083815260200190815260200160002060006101000a81548173ffffffffffffffffffffffffffffffffffffffff021916908373ffffffffffffffffffffffffffffffffffffffff160217905550808273ffffffffffffffffffffffffffffffffffffffff16610c1e836106f7565b73ffffffffffffffffffffffffffffffffffffffff167f8c5be1e5ebec7d5bd14f71427d1e84f3dd0314c0f7b2291e5b200ac8c7c3b92560405160405180910390a45050565b600080610c70836106f7565b90508073ffffffffffffffffffffffffffffffffffffffff168473ffffffffffffffffffffffffffffffffffffffff161480610cb25750610cb181856109d7565b5b80610cf057508373ffffffffffffffffffffffffffffffffffffffff16610cd884610509565b73ffffffffffffffffffffffffffffffffffffffff16145b91505092915050565b8273ffffffffffffffffffffffffffffffffffffffff16610d19826106f7565b73ffffffffffffffffffffffffffffffffffffffff1614610d6f576040517f08c379a0000000000000000000000000000000000000000000000000000000008152600401610d66906127fa565b60405180910390fd5b600073ffffffffffffffffffffffffffffffffffffffff168273ffffffffffffffffffffffffffffffffffffffff1603610dde576040517f08c379a0000000000000000000000000000000000000000000000000000000008152600401610dd59061288c565b60405180910390fd5b610deb838383600161153d565b8273ffffffffffffffffffffffffffffffffffffffff16610e0b826106f7565b73ffffffffffffffffffffffffffffffffffffffff1614610e61576040517f08c379a0000000000000000000000000000000000000000000000000000000008152600401610e58906127fa565b60405180910390fd5b6004600082815260200190815260200160002060006101000a81549073ffffffffffffffffffffffffffffffffffffffff02191690556001600360008573ffffffffffffffffffffffffffffffffffffffff1673ffffffffffffffffffffffffffffffffffffffff168152602001908152602001600020600082825403925050819055506001600360008473ffffffffffffffffffffffffffffffffffffffff1673ffffffffffffffffffffffffffffffffffffffff16815260200190815260200160002060008282540192505081905550816002600083815260200190815260200160002060006101000a81548173ffffffffffffffffffffffffffffffffffffffff021916908373ffffffffffffffffffffffffffffffffffffffff160217905550808273ffffffffffffffffffffffffffffffffffffffff168473ffffffffffffffffffffffffffffffffffffffff167fddf252ad1be2c89b69c2b068fc378daa952ba7f163c4a11628f55a4df523b3ef60405160405180910390a4610fed8383836001611663565b505050565b600081600001549050919050565b60006002600083815260200190815260200160002060009054906101000a900473ffffffffffffffffffffffffffffffffffffffff169050919050565b611045610ba3565b73ffffffffffffffffffffffffffffffffffffffff16611063610848565b73ffffffffffffffffffffffffffffffffffffffff16146110b9576040517f08c379a00000000000000000000000000000000000000000000000000000000081526004016110b0906128f8565b60405180910390fd5b565b6000600760009054906101000a900473ffffffffffffffffffffffffffffffffffffffff16905081600760006101000a81548173ffffffffffffffffffffffffffffffffffffffff021916908373ffffffffffffffffffffffffffffffffffffffff1602179055508173ffffffffffffffffffffffffffffffffffffffff168173ffffffffffffffffffffffffffffffffffffffff167f8be0079c531659141344cd1fd0a4f28419497f9722a3daafe3b4186f6b6457e060405160405180910390a35050565b8173ffffffffffffffffffffffffffffffffffffffff168373ffffffffffffffffffffffffffffffffffffffff16036111ef576040517f08c379a00000000000000000000000000000000000000000000000000000000081526004016111e690612964565b60405180910390fd5b80600560008573ffffffffffffffffffffffffffffffffffffffff1673ffffffffffffffffffffffffffffffffffffffff16815260200190815260200160002060008473ffffffffffffffffffffffffffffffffffffffff1673ffffffffffffffffffffffffffffffffffffffff16815260200190815260200160002060006101000a81548160ff0219169083151502179055508173ffffffffffffffffffffffffffffffffffffffff168373ffffffffffffffffffffffffffffffffffffffff167f17307eab39ab6107e8899845ad3d59bd9653f200f220920489ca2b5937696c31836040516112e09190611ddf565b60405180910390a3505050565b6112f8848484610cf9565b61130484848484611669565b611343576040517f08c379a000000000000000000000000000000000000000000000000000000000815260040161133a906129f6565b60405180910390fd5b50505050565b606061135482610b58565b600060066000848152602001908152602001600020805461137490612411565b80601f01602080910402602001604051908101604052809291908181526020018280546113a090612411565b80156113ed5780601f106113c2576101008083540402835291602001916113ed565b820191906000526020600020905b8154815290600101906020018083116113d057829003601f168201915b5050505050905060006113fe6117f0565b90506000815103611413578192505050611456565b600082511115611448578082604051602001611430929190612a52565b60405160208183030381529060405292505050611456565b61145184611807565b925050505b919050565b6001816000016000828254019250508190555050565b61148b82826040518060200160405280600081525061186f565b5050565b611498826114fc565b6114d7576040517f08c379a00000000000000000000000000000000000000000000000000000000081526004016114ce90612ae8565b60405180910390fd5b806006600084815260200190815260200160002090816114f79190612cb4565b505050565b60008073ffffffffffffffffffffffffffffffffffffffff1661151e83611000565b73ffffffffffffffffffffffffffffffffffffffff1614159050919050565b600181111561165d57600073ffffffffffffffffffffffffffffffffffffffff168473ffffffffffffffffffffffffffffffffffffffff16146115d15780600360008673ffffffffffffffffffffffffffffffffffffffff1673ffffffffffffffffffffffffffffffffffffffff16815260200190815260200160002060008282546115c99190612db5565b925050819055505b600073ffffffffffffffffffffffffffffffffffffffff168373ffffffffffffffffffffffffffffffffffffffff161461165c5780600360008573ffffffffffffffffffffffffffffffffffffffff1673ffffffffffffffffffffffffffffffffffffffff16815260200190815260200160002060008282546116549190612de9565b925050819055505b5b50505050565b50505050565b600061168a8473ffffffffffffffffffffffffffffffffffffffff166118ca565b156117e3578373ffffffffffffffffffffffffffffffffffffffff1663150b7a026116b3610ba3565b8786866040518563ffffffff1660e01b81526004016116d59493929190612e72565b6020604051808303816000875af192505050801561171157506040513d601f19601f8201168201806040525081019061170e9190612ed3565b60015b611793573d8060008114611741576040519150601f19603f3d011682016040523d82523d6000602084013e611746565b606091505b50600081510361178b576040517f08c379a0000000000000000000000000000000000000000000000000000000008152600401611782906129f6565b60405180910390fd5b805181602001fd5b63150b7a0260e01b7bffffffffffffffffffffffffffffffffffffffffffffffffffffffff1916817bffffffffffffffffffffffffffffffffffffffffffffffffffffffff1916149150506117e8565b600190505b949350505050565b606060405180602001604052806000815250905090565b606061181282610b58565b600061181c6117f0565b9050600081511161183c5760405180602001604052806000815250611867565b80611846846118ed565b604051602001611857929190612a52565b6040516020818303038152906040525b915050919050565b61187983836119bb565b6118866000848484611669565b6118c5576040517f08c379a00000000000000000000000000000000000000000000000000000000081526004016118bc906129f6565b60405180910390fd5b505050565b6000808273ffffffffffffffffffffffffffffffffffffffff163b119050919050565b6060600060016118fc84611bd8565b01905060008167ffffffffffffffff81111561191b5761191a6120f7565b5b6040519080825280601f01601f19166020018201604052801561194d5781602001600182028036833780820191505090505b509050600082602001820190505b6001156119b0578080600190039150507f3031323334353637383961626364656600000000000000000000000000000000600a86061a8153600a85816119a4576119a3612f00565b5b0494506000850361195b575b819350505050919050565b600073ffffffffffffffffffffffffffffffffffffffff168273ffffffffffffffffffffffffffffffffffffffff1603611a2a576040517f08c379a0000000000000000000000000000000000000000000000000000000008152600401611a2190612f7b565b60405180910390fd5b611a33816114fc565b15611a73576040517f08c379a0000000000000000000000000000000000000000000000000000000008152600401611a6a90612fe7565b60405180910390fd5b611a8160008383600161153d565b611a8a816114fc565b15611aca576040517f08c379a0000000000000000000000000000000000000000000000000000000008152600401611ac190612fe7565b60405180910390fd5b6001600360008473ffffffffffffffffffffffffffffffffffffffff1673ffffffffffffffffffffffffffffffffffffffff16815260200190815260200160002060008282540192505081905550816002600083815260200190815260200160002060006101000a81548173ffffffffffffffffffffffffffffffffffffffff021916908373ffffffffffffffffffffffffffffffffffffffff160217905550808273ffffffffffffffffffffffffffffffffffffffff16600073ffffffffffffffffffffffffffffffffffffffff167fddf252ad1be2c89b69c2b068fc378daa952ba7f163c4a11628f55a4df523b3ef60405160405180910390a4611bd4600083836001611663565b5050565b600080600090507a184f03e93ff9f4daa797ed6e38ed64bf6a1f0100000000000000008310611c36577a184f03e93ff9f4daa797ed6e38ed64bf6a1f0100000000000000008381611c2c57611c2b612f00565b5b0492506040810190505b6d04ee2d6d415b85acef81000000008310611c73576d04ee2d6d415b85acef81000000008381611c6957611c68612f00565b5b0492506020810190505b662386f26fc100008310611ca257662386f26fc100008381611c9857611c97612f00565b5b0492506010810190505b6305f5e1008310611ccb576305f5e1008381611cc157611cc0612f00565b5b0492506008810190505b6127108310611cf0576127108381611ce657611ce5612f00565b5b0492506004810190505b60648310611d135760648381611d0957611d08612f00565b5b0492506002810190505b600a8310611d22576001810190505b80915050919050565b6000604051905090565b600080fd5b600080fd5b60007fffffffff0000000000000000000000000000000000000000000000000000000082169050919050565b611d7481611d3f565b8114611d7f57600080fd5b50565b600081359050611d9181611d6b565b92915050565b600060208284031215611dad57611dac611d35565b5b6000611dbb84828501611d82565b91505092915050565b60008115159050919050565b611dd981611dc4565b82525050565b6000602082019050611df46000830184611dd0565b92915050565b600081519050919050565b600082825260208201905092915050565b60005b83811015611e34578082015181840152602081019050611e19565b60008484015250505050565b6000601f19601f8301169050919050565b6000611e5c82611dfa565b611e668185611e05565b9350611e76818560208601611e16565b611e7f81611e40565b840191505092915050565b60006020820190508181036000830152611ea48184611e51565b905092915050565b6000819050919050565b611ebf81611eac565b8114611eca57600080fd5b50565b600081359050611edc81611eb6565b92915050565b600060208284031215611ef857611ef7611d35565b5b6000611f0684828501611ecd565b91505092915050565b600073ffffffffffffffffffffffffffffffffffffffff82169050919050565b6000611f3a82611f0f565b9050919050565b611f4a81611f2f565b82525050565b6000602082019050611f656000830184611f41565b92915050565b611f7481611f2f565b8114611f7f57600080fd5b50565b600081359050611f9181611f6b565b92915050565b60008060408385031215611fae57611fad611d35565b5b6000611fbc85828601611f82565b9250506020611fcd85828601611ecd565b9150509250929050565b600080600060608486031215611ff057611fef611d35565b5b6000611ffe86828701611f82565b935050602061200f86828701611f82565b925050604061202086828701611ecd565b9150509250925092565b61203381611eac565b82525050565b600060208201905061204e600083018461202a565b92915050565b60006020828403121561206a57612069611d35565b5b600061207884828501611f82565b91505092915050565b61208a81611dc4565b811461209557600080fd5b50565b6000813590506120a781612081565b92915050565b600080604083850312156120c4576120c3611d35565b5b60006120d285828601611f82565b92505060206120e385828601612098565b9150509250929050565b600080fd5b600080fd5b7f4e487b7100000000000000000000000000000000000000000000000000000000600052604160045260246000fd5b61212f82611e40565b810181811067ffffffffffffffff8211171561214e5761214d6120f7565b5b80604052505050565b6000612161611d2b565b905061216d8282612126565b919050565b600067ffffffffffffffff82111561218d5761218c6120f7565b5b61219682611e40565b9050602081019050919050565b82818337600083830152505050565b60006121c56121c084612172565b612157565b9050828152602081018484840111156121e1576121e06120f2565b5b6121ec8482856121a3565b509392505050565b600082601f830112612209576122086120ed565b5b81356122198482602086016121b2565b91505092915050565b6000806000806080858703121561223c5761223b611d35565b5b600061224a87828801611f82565b945050602061225b87828801611f82565b935050604061226c87828801611ecd565b925050606085013567ffffffffffffffff81111561228d5761228c611d3a565b5b612299878288016121f4565b91505092959194509250565b600067ffffffffffffffff8211156122c0576122bf6120f7565b5b6122c982611e40565b9050602081019050919050565b60006122e96122e4846122a5565b612157565b905082815260208101848484011115612305576123046120f2565b5b6123108482856121a3565b509392505050565b600082601f83011261232d5761232c6120ed565b5b813561233d8482602086016122d6565b91505092915050565b6000806040838503121561235d5761235c611d35565b5b600061236b85828601611f82565b925050602083013567ffffffffffffffff81111561238c5761238b611d3a565b5b61239885828601612318565b9150509250929050565b600080604083850312156123b9576123b8611d35565b5b60006123c785828601611f82565b92505060206123d885828601611f82565b9150509250929050565b7f4e487b7100000000000000000000000000000000000000000000000000000000600052602260045260246000fd5b6000600282049050600182168061242957607f821691505b60208210810361243c5761243b6123e2565b5b50919050565b7f4552433732313a20617070726f76616c20746f2063757272656e74206f776e6560008201527f7200000000000000000000000000000000000000000000000000000000000000602082015250565b600061249e602183611e05565b91506124a982612442565b604082019050919050565b600060208201905081810360008301526124cd81612491565b9050919050565b7f4552433732313a20617070726f76652063616c6c6572206973206e6f7420746f60008201527f6b656e206f776e6572206f7220617070726f76656420666f7220616c6c000000602082015250565b6000612530603d83611e05565b915061253b826124d4565b604082019050919050565b6000602082019050818103600083015261255f81612523565b9050919050565b7f4552433732313a2063616c6c6572206973206e6f7420746f6b656e206f776e6560008201527f72206f7220617070726f76656400000000000000000000000000000000000000602082015250565b60006125c2602d83611e05565b91506125cd82612566565b604082019050919050565b600060208201905081810360008301526125f1816125b5565b9050919050565b7f4552433732313a20696e76616c696420746f6b656e2049440000000000000000600082015250565b600061262e601883611e05565b9150612639826125f8565b602082019050919050565b6000602082019050818103600083015261265d81612621565b9050919050565b7f4552433732313a2061646472657373207a65726f206973206e6f74206120766160008201527f6c6964206f776e65720000000000000000000000000000000000000000000000602082015250565b60006126c0602983611e05565b91506126cb82612664565b604082019050919050565b600060208201905081810360008301526126ef816126b3565b9050919050565b7f4f776e61626c653a206e6577206f776e657220697320746865207a65726f206160008201527f6464726573730000000000000000000000000000000000000000000000000000602082015250565b6000612752602683611e05565b915061275d826126f6565b604082019050919050565b6000602082019050818103600083015261278181612745565b9050919050565b7f4552433732313a207472616e736665722066726f6d20696e636f72726563742060008201527f6f776e6572000000000000000000000000000000000000000000000000000000602082015250565b60006127e4602583611e05565b91506127ef82612788565b604082019050919050565b60006020820190508181036000830152612813816127d7565b9050919050565b7f4552433732313a207472616e7366657220746f20746865207a65726f2061646460008201527f7265737300000000000000000000000000000000000000000000000000000000602082015250565b6000612876602483611e05565b91506128818261281a565b604082019050919050565b600060208201905081810360008301526128a581612869565b9050919050565b7f4f776e61626c653a2063616c6c6572206973206e6f7420746865206f776e6572600082015250565b60006128e2602083611e05565b91506128ed826128ac565b602082019050919050565b60006020820190508181036000830152612911816128d5565b9050919050565b7f4552433732313a20617070726f766520746f2063616c6c657200000000000000600082015250565b600061294e601983611e05565b915061295982612918565b602082019050919050565b6000602082019050818103600083015261297d81612941565b9050919050565b7f4552433732313a207472616e7366657220746f206e6f6e20455243373231526560008201527f63656976657220696d706c656d656e7465720000000000000000000000000000602082015250565b60006129e0603283611e05565b91506129eb82612984565b604082019050919050565b60006020820190508181036000830152612a0f816129d3565b9050919050565b600081905092915050565b6000612a2c82611dfa565b612a368185612a16565b9350612a46818560208601611e16565b80840191505092915050565b6000612a5e8285612a21565b9150612a6a8284612a21565b91508190509392505050565b7f45524337323155524953746f726167653a2055524920736574206f66206e6f6e60008201527f6578697374656e7420746f6b656e000000000000000000000000000000000000602082015250565b6000612ad2602e83611e05565b9150612add82612a76565b604082019050919050565b60006020820190508181036000830152612b0181612ac5565b9050919050565b60008190508160005260206000209050919050565b60006020601f8301049050919050565b600082821b905092915050565b600060088302612b6a7fffffffffffffffffffffffffffffffffffffffffffffffffffffffffffffffff82612b2d565b612b748683612b2d565b95508019841693508086168417925050509392505050565b6000819050919050565b6000612bb1612bac612ba784611eac565b612b8c565b611eac565b9050919050565b6000819050919050565b612bcb83612b96565b612bdf612bd782612bb8565b848454612b3a565b825550505050565b600090565b612bf4612be7565b612bff818484612bc2565b505050565b5b81811015612c2357612c18600082612bec565b600181019050612c05565b5050565b601f821115612c6857612c3981612b08565b612c4284612b1d565b81016020851015612c51578190505b612c65612c5d85612b1d565b830182612c04565b50505b505050565b600082821c905092915050565b6000612c8b60001984600802612c6d565b1980831691505092915050565b6000612ca48383612c7a565b9150826002028217905092915050565b612cbd82611dfa565b67ffffffffffffffff811115612cd657612cd56120f7565b5b612ce08254612411565b612ceb828285612c27565b600060209050601f831160018114612d1e5760008415612d0c578287015190505b612d168582612c98565b865550612d7e565b601f198416612d2c86612b08565b60005b82811015612d5457848901518255600182019150602085019450602081019050612d2f565b86831015612d715784890151612d6d601f891682612c7a565b8355505b6001600288020188555050505b505050505050565b7f4e487b7100000000000000000000000000000000000000000000000000000000600052601160045260246000fd5b6000612dc082611eac565b9150612dcb83611eac565b9250828203905081811115612de357612de2612d86565b5b92915050565b6000612df482611eac565b9150612dff83611eac565b9250828201905080821115612e1757612e16612d86565b5b92915050565b600081519050919050565b600082825260208201905092915050565b6000612e4482612e1d565b612e4e8185612e28565b9350612e5e818560208601611e16565b612e6781611e40565b840191505092915050565b6000608082019050612e876000830187611f41565b612e946020830186611f41565b612ea1604083018561202a565b8181036060830152612eb38184612e39565b905095945050505050565b600081519050612ecd81611d6b565b92915050565b600060208284031215612ee957612ee8611d35565b5b6000612ef784828501612ebe565b91505092915050565b7f4e487b7100000000000000000000000000000000000000000000000000000000600052601260045260246000fd5b7f4552433732313a206d696e7420746f20746865207a65726f2061646472657373600082015250565b6000612f65602083611e05565b9150612f7082612f2f565b602082019050919050565b60006020820190508181036000830152612f9481612f58565b9050919050565b7f4552433732313a20746f6b656e20616c7265616479206d696e74656400000000600082015250565b6000612fd1601c83611e05565b9150612fdc82612f9b565b602082019050919050565b6000602082019050818103600083015261300081612fc4565b905091905056fea2646970667358221220c39de8f6992c49b59b018b22e3df0b06380a50f773650886617aa2d4745d89d164736f6c63430008110033",
  "linkReferences": {},
  "deployedLinkReferences": {}
}